:020000040800F2
:10000000F0B70020BD01000881140008A910000805
:100010007D14000825100008F51D000800000000F0
:10002000000000000000000000000000E9140008CB
:100030002910000800000000AD140008091C000889
:10004000D7010008D7010008D7010008D701000830
:10005000D7010008D7010008D7010008D701000820
:10006000D7010008D7010008D7010008D701000810
:10007000D7010008D7010008D7010008D701000800
:10008000D7010008D7010008D7010008D7010008F0
:10009000D7010008D7010008D7010008D7010008E0
:1000A000D7010008D7010008D7010008D7010008D0
:1000B0008D1C0008D7010008C91C0008D7010008E2
:1000C000D7010008D7010008D7010008D7010008B0
:1000D000D7010008D7010008D7010008D7010008A0
:1000E000D7010008D7010008D7010008D701000890
:1000F000791D0008D7010008D7010008D7010008C2
:10010000D7010008D7010008D7010008D70100086F
:10011000D7010008D7010008D7010008D70100085F
:10012000D7010008D7010008D7010008D70100084F
:10013000D7010008D7010008D7010008D70100083F
:10014000D7010008D7010008D7010008D70100082F
:10015000D7010008D7010008D7010008D70100081F
:10016000D7010008D7010008D7010008D70100080F
:10017000D7010008D7010008D701000800000000DF
:10018000D7010008D7010008D7010008D7010008EF
:10019000D7010008D7010008D7010008D7010008DF
:1001A000D7010008D7010008DFF80CD000F08AFC66
:1001B000004800478D4D0008F0B7002006488047F2
:1001C00006480047FEE7FEE7FEE7FEE7FEE7FEE73C
:1001D000FEE7FEE7FEE7FEE7151C0008A9010008A0
:1001E00040EA01039B0703D009E008C9121F08C0B9
:1001F000042AFAD203E011F8013B00F8013B521E39
:10020000F9D27047D2B201E000F8012B491EFBD2AF
:1002100070470022F6E710B513460A460446194611
:10022000FFF7F0FF204610BD421E12F8013F002BE1
:10023000FBD111F8013B02F8013B002BF9D17047CB
:1002400030B505462A460B4612F8010B13F8014B50
:1002500008B1A042F8D01CB1002802D06D1CF1E713
:10026000284630BD421C10F8011B0029FBD1801A22
:10027000704710B5002200E0521C835C8C5CA342E6
:1002800001D1002BF8D1D8B2E1B2401A10BD30B57F
:1002900004460020034600E05B1C934203D2E05C6E
:1002A000CD5C401BF8D030BD034611F8012B00F89F
:1002B000012B002AF9D11846704700000FB400B591
:1002C0008DB010A909900B9000914FF0FF300A906B
:1002D00000200C9005480690054807906A4609A83A
:1002E0000F9900F015FB0DB05DF814FB2D09000807
:1002F0004B0900082DE9FF5F1D464FF0FF3BD5E994
:10030000014691465F464FF00008A9697F1C01989D
:100310008847296A824688470028F6D1BAF1FF3F0C
:100320000CD024F4C064002E19DD600614D5BAF197
:100330002B0F09D0BAF12D0F0ED103E0584604B0AF
:10034000BDE8F09F44F48064A9697F1C0198884748
:10035000761E8246002E02DDBAF1300F03D0B9F1CD
:10036000000F26D032E0A969761E44F400747F1C89
:10037000019888478246002E05DDBAF1780F06D035
:10038000BAF1580F03D0B9F1000F10D01EE0B9F147
:10039000000F02D0B9F1100F18D1A969761E24F40C
:1003A00000747F1C019888478246102002E00820D4
:1003B00000E00A20814609E008FB0908A969761EC9
:1003C00044F400747F1C019888478246002E05DDA6
:1003D0004946504600F088FA0028EDDAE9690198AC
:1003E0008847A00502D46FF00100A8E7E00725D1F7
:1003F000600613D5600502D5C8F1000000E0404654
:1004000029680A1D2A600968220501D5087015E0CF
:10041000220701D5088011E008600FE02868011D5F
:1004200029600068210502D580F8008006E02107D8
:1004300002D5A0F8008001E0C0F8008038467EE7D1
:100440002DE9FE4F804681EA0300C00F0C46009064
:1004500021F0004123F00045B8EB0200A94105D28C
:100460004046214690461C460B46024623F000407B
:10047000104347D0270DC7F30A00C3F30A51029077
:10048000401A019040286BDAC3F3130040F4801B3C
:100490000098924620B10023D2EB030A63EB0B0BCA
:1004A00001985946C0F14002504600F0ECF906466A
:1004B0000D4650465946019A00F004FA10EB080028
:1004C0006141002487EA115284EAE7731A4340D05D
:1004D000009A62B3019A012A4FEA075215DC001B09
:1004E00061EB02014FF0004202EA0752CDE90042FF
:1004F000001C41F5801132462B4600F07DFA03B016
:10050000BDE8F08F40462146F9E7001B61EB020190
:10051000001C41F5801300185B412018A2F500175C
:1005200047EB030140EAD570B6196D4111E06D0843
:100530004FEA360645EAC0754FEA0752001B61EBE9
:100540000201001C41F5801149084FEA30000019F2
:10055000514132462B4603B0BDE8F04F00F03DBAA2
:100560000098012240000023D0EB020263EBE0730D
:10057000009821464FEAE074B8EB000061EB0401FB
:10058000E9E783F000435BE781F0004158E72DE99C
:10059000FE4F81EA030404F0004421F0004100947E
:1005A0004FF0000B23F0004350EA01045ED052EA02
:1005B00003045BD0C3F30A54C1F30A552C44A4F2DC
:1005C000F3340194A0FB0254C1F3130141F48011F0
:1005D000C3F3130343F4801301FB024400FB034EF7
:1005E000840A970A44EA815447EA8357A4FB0768C0
:1005F00002958D0A05FB07854FEA932C04FB0C54EA
:100600002705029D4FEA065847EA1637B5EB08055D
:100610006EEB070C870E920E47EA811742EA8312AF
:10062000A7FB0201B6EB0B0164EB00042B0D43EAC0
:100630000C335E1844EB1C50DA465146E7FB0201CE
:10064000C5F313044FEA0B3343EA14534FEA043261
:10065000019C43EA0603A4F10C040294009CCDE93A
:1006600000B400F0C9F903B0BDE8F08F00200146E6
:10067000F9E72DE9F04D81EA030404F0004B21F085
:10068000004514464FF0000A23F0004150EA0502ED
:1006900020D054EA01021DD0C5F30A570246C5F323
:1006A0001303C1F31300C1F30A5640F4801543F459
:1006B0008013A7EB0608101BD64608F2FD3873EB33
:1006C000050002D308F1010801E092185B41B8F17E
:1006D000000F03DA00200146BDE8F08D00204FF442
:1006E0008011064684460EE0171B73EB050705D301
:1006F000121B63EB050306434CEA010C49084FEA61
:10070000300092185B4150EA0107EDD152EA030034
:1007100012D082EA040083EA0501084305D0101BC9
:10072000AB4106D20122002306E000224FF0004335
:1007300002E06FF0010253101AEB06004CEB085177
:1007400010EB0A0041EB0B01BDE8F04D00F045B99C
:100750000EB540F2334102910021CDE900110A4665
:100760000B4600F049F903B000BD00F0004230F044
:1007700000400AD0C10D01F56071C0F3160042EAD5
:100780000151C208400711437047002001467047DD
:1007900030B5041E71F1000404DB4FF00044404208
:1007A00064EB0101141E73F1000405DB1C464FF0DD
:1007B0000043524263EB0403994208BF904230BDAC
:1007C00001F0004330B421F0004150EA010206D0AC
:1007D0000A0DA2F56072C1F31301002A02DC30BCDD
:1007E00000207047440F44EAC104C100E01830BC47
:1007F00000EBC25000F0BAB830B50B4601460020FD
:100800002022012409E021FA02F59D4205D303FAD2
:1008100002F5491B04FA02F52844151EA2F1010253
:10082000F1DC30BD2DE9F05F0546002092469B4685
:1008300088460646814640241BE0284641464746F6
:10084000224600F02FF853465A46C01A914110D361
:1008500011461846224600F016F82D1A67EB0108DB
:100860004F4622460120002100F00DF817EB000949
:100870004E41201EA4F10104DFDC484631462A46E1
:100880004346BDE8F09F202A04DB203A00FA02F13B
:10089000002070479140C2F1200320FA03F319436E
:1008A00090407047202A04DB203A21FA02F0002110
:1008B000704721FA02F3D040C2F120029140084370
:1008C00019467047202A06DBCB17203A41FA02F07E
:1008D00043EAE07306E041FA02F3D040C2F120029D
:1008E00091400843194670473A2800D2303820F02A
:1008F0002002412A01D3A2F13700884201D34FF0F0
:10090000FF30704702681144137801601846704741
:10091000D1600449516104491162002111611146FD
:1009200000F0E8B805090008E90A0008426842B189
:10093000016811F8013B23B1521EC0E900121846AC
:1009400070470121C160881E704742685AB1C36870
:10095000016843B983688B4205D0491E521CC0E927
:100960000012002070474FF0FF3070470029A8BFE9
:100970007047401C490008BF20F00100704710B4C8
:10098000B0FA80FC00FA0CF050EA010404BF10BC7D
:10099000704749B1CCF1200421FA04F411FA0CF1AA
:1009A00018BF012121430843A3EB0C01CB1D4FEAE3
:1009B00000614FEA102042BF002010BC704700EBDE
:1009C000C35010440029A4BF10BC7047401C49000C
:1009D00008BF20F0010010BC704710B5141E73F161
:1009E000000408DA401C41F1000192185B411A43EF
:1009F00001D120F0010010BD2DE9F04D92469B463B
:100A000011B1B1FA81F202E0B0FA80F220329046E0
:100A1000FFF739FF04460F4640EA0A0041EA0B019E
:100A200053465A46084313D0114653EA010019D0E1
:100A3000C8F140025046FFF735FF05460E465046C6
:100A400059464246FFF71FFF084305D0012004E046
:100A500020463946BDE8F08D0020054346EAE076A1
:100A60002C4337430A986305E40AA0EB08000022F0
:100A7000FD0A44EA47540A3002D500200146E9E75E
:100A8000010510196941DDE9084500196941BDE812
:100A9000F04DA2E7C1F30A52C1F3130140F2FF3354
:100AA00041F480119A4202DA00200146704740F278
:100AB00033439A42A2F2334202DC5242FFF7F2BEC3
:100AC000FFF7E1BE064C074D06E0E06840F0010389
:100AD00094E8070098471034AC42F6D3FFF768FB60
:100AE000407D0008607D0008C0B24FF4F05100F076
:100AF00097B900002DE9F34F8BB04FF0000801F1DA
:100B00000C000C464FF0010B46460DF1080A01900F
:100B10006269012101989047051E2DD0252D2CD00A
:100B2000216A8847C0B16269012101989047216A12
:100B300088470028F7D1411E62690198904700E07C
:100B4000761CA1690B988847216A88470028F7D14D
:100B5000E1690B988847DBE7A1690B98884707464E
:100B6000A84201D1761CD3E7E1690B9888477F1C26
:100B700002D1B8F1000F6FD046E1002762693D460F
:100B80003946019890472A2804D1626901210198C9
:100B900090470125DFF8849262690121019890470E
:100BA000A0F130010A290AD24F45E5DC07EB8701A5
:100BB00000EB4107303FDFD445F01005ECE7E906D4
:100BC00001D46FF000476C280AD04C2814D0682854
:100BD00015D06A280DD074281CD07A281AD01DE0B0
:100BE00062690121019890476C2802D045F0040504
:100BF00014E045F002050DE045F020050AE06269C9
:100C0000012101989047682802D045F0080505E0C9
:100C100045F400656269012101989047C4E90157D4
:100C200065283DD019DC58287AD00CDC452837D00F
:100C300004DC252826D0412831D131E046282FD0A8
:100C400047282CD12CE05B2877D0612828D0632856
:100C50007CD0642823D15AE0D0E06F2848D008DC4B
:100C600066281DD067281BD0692821D06E2816D190
:100C700027E0702845D0732868D0752847D0782899
:100C80000DD14DE0A1690B988847054625283FF412
:100C900069AFE1690B9888476D1C3FF46AAFB3E018
:100CA00023466A466FF001000B99AFF300809EE087
:100CB00045F040006060A80723464FF0000236D49C
:100CC0003EE0E8077FF447AF2068011D216000681F
:100CD000290501D506701BE7290701D5068017E70E
:100CE000A90703D5F117C0E9006111E706600FE716
:100CF00045F040006060A80723464FF0080216D474
:100D00001EE040F60E0125EA0100606016E045F0A5
:100D100040006060A80723464FF00A0207D40FE0A6
:100D200045F040006060A80708D5234610226FF008
:100D300001000B99AFF3008059E007E02346102231
:100D40006FF001000B99FFF7D5FA50E04FF0000962
:100D50004F464B46632802D05B2806D040E0E806A9
:100D600001D40120A06001273AE0626901210198C5
:100D700090475E2805D14FF0010962694946019804
:100D80009047216939B900210A46534643F821208A
:100D9000491C0829FADBB0B3216969B9C11700EB16
:100DA000D16253110AEB830122F01F02821A012043
:100DB0000B68904003430B606269012101989047E2
:100DC0005D28E8D1B9F1000F09D00020514651F853
:100DD0002020D24341F82020401C0828F7DB02AB3A
:100DE000224600976FF001000B99AFF300800028B6
:100DF0000CDA401C08D1BBF1000F05D04FF0FF30DA
:100E00000DB0BDE8F08FFFE74046F9E7E90701D1F3
:100E100008F1010806444FF0000B79E6CCCCCC0C6D
:100E20007F2801D9002208E0064A02EB5002C007E1
:100E3000127800D1120902F00F0201209040084000
:100E400070470000BA7C000870B58C1810F8015B80
:100E500015F0070301D110F8013B2A1106D110F853
:100E6000012B03E010F8016B01F8016B5B1EF9D157
:100E70002B0705D40023521E0DD401F8013BFAE7DD
:100E800010F8013BCB1A921C03E013F8015B01F848
:100E9000015B521EF9D5A142D8D3002070BD0000DD
:100EA00070B52DED048B9FED470AB0EE408A9FEDA3
:100EB000450AF0EE408A00240A250AE00A21424849
:100EC00001F04AFC064602F069F930EE080AB0EE7D
:100ED000408A281EA5F10101CDB2EFDCB2EE040A72
:100EE000C8EE000AF0EE608AB0EE080A28EE800A2A
:100EF000364880ED000A4FF40041354803F012F9FE
:100F000048B332480068FFF730FC41EC190B9FED05
:100F1000310B53EC102BFFF73BFC07D240F6B830F7
:100F200000F06AFF64202D49087046E02C484468B0
:100F3000641E204600F060FF00BF214629A000F09B
:100F400079FF00BF6420604340F6B831B0FBF1F098
:100F50002249087031E02248406828490860084664
:100F600090ED000ADFED260A20EE200ADFED250ACB
:100F700080EE201ABCEEC10A10EE100A1749087064
:100F800000BF12480068FFF7F0FB41EC190B53EC6F
:100F9000192B1DA000F04EFF00BF0C480068FFF7A2
:100FA000E4FB41EC190B9FED0B0B53EC102BFFF7FF
:100FB000EFFB02D264200949087008480078BDECB4
:100FC000048B70BD00000000002001407C00002068
:100FD00000100240000000000000164078000020D1
:100FE00000C00008636F6C6C656374202074696DC9
:100FF0006572202025640D0A20000000800000207A
:101000000000C84200A08C4563757272656E745F03
:10101000766F6C7461676520697320256620760D94
:101020000A00000000BFFEE7704700002DE9F04114
:1010300080460E46174644462046FFF713F907EB55
:101040004701884202D20020BDE8F081002517E068
:1010500020783038642110FB01F16078303800EBE3
:10106000800001EB4001A07830380844705500BF83
:10107000715D05A000F0DEFE00BF681CC5B2E41C77
:10108000BD42E5DB0120DFE75265616479206368DA
:10109000616E6E656C3A25640D0A000001480068B7
:1010A000704700003000002000BFFEE702480068E3
:1010B000401C014908607047300000202DE9F047CE
:1010C00004460E4691460025B9F1410F7ED0B9F194
:1010D000470F14D0B9F14A0F79D0B9F1530F77D136
:1010E000FD20005DF0614FF4807104F1F800FFF71E
:1010F00090F852223146794803F028FCEBE000BF1B
:1011000077A0D4F8F81000F095FE00BF00BFFC20D7
:10111000015D78A000F08EFE00BF00BFFD20015DE4
:101120007DA000F087FE00BF00BFFE20015D84A00F
:1011300000F080FE00BF00BF4FF48070015D8AA008
:1011400000F078FE00BF00BF40F20110015D8FA0EB
:1011500000F070FE00BF00BF294695A000F06AFEB7
:1011600000BFFE20005D002816DDFE20005D102877
:1011700012DC4FF48070015DFE20005D401E934A3A
:1011800002EBC000817040F20110015DFE20005DA5
:10119000401E02EBC000C170FE20005D401E8B4966
:1011A00001EBC0008078002817DBFE20005D401EA8
:1011B00001EBC000807830280FDCFE20005D401E6F
:1011C00001EBC0008178FE20005D02E06DE037E0B9
:1011D00080E0401E400045F82010002727E07800FE
:1011E00015F82000794901EBC701887005EBC700AD
:1011F0000079764901EBC701C87000BF394674A079
:1012000000F018FE00BF00BF704800EBC7008178F7
:1012100073A000F00FFE00BF00BF6C4800EBC700DA
:10122000C17872A000F006FE00BF781CC7B2032F81
:10123000D5DB4FF4807104F1F800FEF7EAFF4AE0D5
:1012400000BF6DA000F0F6FD00BF00BF744804F0C1
:101250004FFF07463A460B4672A000F0EBFD00BF79
:1012600000BFD4E93E733A4673A000F0E3FD00BF2F
:101270006B4804F03DFFD4E93E3243404A401343FB
:1012800012D14FF4847001596548001F06F0D8FB55
:1012900028B94F223146204603F058FB04E000BF36
:1012A0006AA000F0C7FD00BF15E04FF4807104F1A3
:1012B000F800FEF7AEFF4FF4E16002F0B3FA4F2200
:1012C0003146204603F042FB00BF67A000F0B2FDAC
:1012D00000BF00E000BF00BFBDE8F0875041002024
:1012E0006E6574776F726B494420203A2025780D23
:1012F0000A000000706C6F72612D3E4C6F5261529B
:1013000078446174615F742E6172672E696E7374C4
:10131000203D2025640D0A00706C6F72612D3E4CDB
:101320006F52615278446174615F742E6172672EEE
:1013300072657365727665203D2025640D0A000094
:10134000706C6F72612D3E4C6F52615278446174C3
:10135000615F742E6172672E70726F626549643DC1
:101360002025640D0A000000706C6F72612D3E4CE8
:101370006F52615278446174615F742E6172672E9E
:101380006761696E203D2025640D0A00706C6F72E4
:10139000612D3E4C6F52615278446174615F742ECE
:1013A0006172672E6176673D2025640D0A0000009A
:1013B00070726F62654761696E417667206164642F
:1013C00072203A2025700D0A000000005200002013
:1013D00070726F62656E756D3A2025640D0A0000AB
:1013E0004741494E3A2025640D0A00004156473ACC
:1013F0002025640D0A0000000D0A207265636965EE
:101400007665206A6F696E206E6574776F726B20E7
:10141000696E737472756374696F6E200D0A0000D3
:101420000400040873656E736F7249443A20256C9A
:101430006C750D0A000000006E6574776F726B4961
:101440004420203A20256C6C750D0A006E65747777
:101450006F726B6964207772697465206661696C6C
:101460006564200D0A000000747820302077616EDA
:101470006368656E67200D0A0000000000BFFEE78C
:101480007047000010B5002807DA0A07140E054A55
:1014900000F00F031B1FD45403E00A07130E024A87
:1014A000135410BD18ED00E000E400E070470000A8
:1014B00070B502F0DFFB084804F00AFE044622463D
:1014C0000B4606A1074800F0C5FC3B2005490875FE
:1014D00002F066FB012070BD04000408256C6C75E9
:1014E00000000000000100207047000070B50446B5
:1014F0000D4616462572204600F046FA84224D21FC
:10150000204600F072F9FF222421204600F06DF9F8
:1015100001224021204600F068F93F221121204697
:1015200000F063F9204600F08DF92A46222120467A
:1015300000F05BF90E21204600F042F918490870CE
:10154000084602780D21204600F04FF98D22012136
:10155000204600F04AF9002084F80A011EE0182114
:10156000204600F02DF900F00400042808D10320E3
:10157000607200BF0BA000F05DFC00BF012070BDD9
:10158000701E061E07D1206800F022FA204600F0E7
:10159000FBF90020F3E7012000F009FADFE7000083
:1015A000D50000207278206D6F6465200D0A000060
:1015B0002DE9F04104460D4617462572204600F0FD
:1015C000E3F987224D21204600F00FF90022242163
:1015D000204600F00AF941224021204600F005F99A
:1015E000204600F02FF9F7221121204600F0FDF8E7
:1015F0002A462221204600F0F8F80E21204600F06D
:10160000DFF8804642460D21204600F0EEF81BE050
:101610002221204600F0D4F80646AE4209D100BF90
:101620000AA000F007FC00BF022060720120BDE8A4
:10163000F081781E071E07D1206800F0C9F9204606
:1016400000F0A2F90020F2E7E2E700006C6F72619F
:10165000207478206D6F64650D0A000070B5044633
:10166000206800F0ABF920B34FF4807104F10A0058
:10167000FEF7CFFD1021204600F0A2F806463246C4
:101680000D21204600F0B1F8A07908B9257A04E0D0
:101690001321204600F094F805462B4604F10A0277
:1016A0000021204600F046F884F80A51204600F058
:1016B000C9F894F80A0170BD2DE9F04107460C46BF
:1016C00015461E462B4622460021384600F054F8A7
:1016D0008B220121384600F088F827E04FF4806122
:1016E000134802F01FFD01280DD11221384600F0E9
:1016F00067F88046384600F0A5F8384600F008FA4A
:101700000120BDE8F081701E061E0CD11221384662
:1017100000F056F88046384600F094F8384600F05D
:10172000F7F90020EDE7012000F041F9D6E70000CD
:10173000000402402DE9F0410446884617461E4643
:10174000012E01DCBDE8F0810021206800F0A6F93F
:101750004146206800F051F9002505E0206800F0BE
:101760006BF97855681CC5B2B542F7DB01212068DA
:1017700000F094F900BFE5E72DE9F04104460F467B
:1017800090461E46012E01DCBDE8F0810021206854
:1017900000F084F947F08001206800F02EF9002560
:1017A00006E018F80510206800F027F9681CC5B29B
:1017B000B542F6DB0121206800F070F900BFE3E7D5
:1017C00070B504460D460021206800F067F92946EF
:1017D000206800F012F9206800F02EF90646012179
:1017E000206800F05BF9304670BD70B504460D46C8
:1017F00016460021206800F051F945F0800120686C
:1018000000F0FBF83146206800F0F7F8012120686D
:1018100000F044F970BD2DE9F04704460D46164628
:101820001F46DDE90889206800F047F925716671D7
:10183000A77184F8078084F80890204600F0A4F887
:10184000BDE8F08710B50446FF2212212046FFF7BD
:10185000CCFF10BD2DE9F04706460F4690461C46CA
:10186000DDF82090304600F049F9304600F097F856
:1018700001213046FFF7A4FF3E49087007EB4700FF
:101880003D494218032306213046FFF775FF3B48C8
:1018900010F8082009213046FFF7A7FF0B22114658
:1018A0003046FFF7A2FF23220C213046FFF79DFFB1
:1018B0003348005D06282AD1324810F80900022179
:1018C00001EB0010401CC2B21D213046FFF78DFF16
:1018D0002B48005D042101EB0010C01CC2B21E2188
:1018E0003046FFF782FF31213046FFF769FF05469A
:1018F00005F0F80545F005052A4631213046FFF789
:1019000074FF0C2237213046FFF76FFF15E01D48AA
:1019100010F80900022101EB0010C2B21D2130466F
:10192000FFF763FF1648005D042101EB0010C01CA7
:10193000C2B21E213046FFF758FFFF221F2130465A
:10194000FFF753FF002220213046FFF74EFF06220B
:1019500021213046FFF749FF012241213046FFF7A0
:1019600044FF002086F80A01304600F0D1F8BDE8B7
:10197000F0870000D4000020787C0008A57C0008D7
:10198000A97C0008B07C000838B50446E0790090D6
:10199000A379627921792046FFF75CFF38BD10B545
:1019A0000446882201212046FFF71FFF10BD10B515
:1019B0000446204601F036FF10BD000010B5044675
:1019C0004FF48061014802F0ADFB10BD00040240FD
:1019D00010B504460121204600F060F8D4E900105B
:1019E00002F0D7FA0120FFF7E2FFD4E9001002F07D
:1019F000D2FA6420FFF7DBFF10BD70B504460D4638
:101A0000FFF74CFB06462946A06905F052F800BFD7
:101A10008021A06905F04FF8012805D1FFF73EFBB2
:101A2000801BB0F57A7FF3D300BF0221A06905F0D7
:101A300042F80028F9D070BD2DE9F0410446002796
:101A40000025FFF72BFB064600BF0221A06905F029
:101A500032F80028F9D00A21A06905F02AF8A06917
:101A600005F023F8C5B200BF8021A06905F023F876
:101A70000128F9D0A06905F018F8C5B200BF01210E
:101A8000A06905F018F8012805D1FFF707FB801BB6
:101A9000B0F57A7FF3D32846BDE8F08170B50446EF
:101AA0000D46012D04D1D4E9041002F074FA03E0CC
:101AB000D4E9041002F06DFA70BD10B5044601219E
:101AC0002046FFF7EBFFD4E9001002F064FA10BDE6
:101AD00070B504460E46154694F80A01A84201D096
:101AE00094F80A512A4604F10A013046FEF778FBC1
:101AF0000020705584F80A01284670BD10B50446D0
:101B0000082201212046FFF770FE0020607210BD00
:101B100010B50446092201212046FFF766FE012088
:101B2000607210BD38B505460C46032C01DD00205F
:101B300038BD224669462846FFF778FA28B1224682
:101B40006946002000F004F8F2E70020F0E700000A
:101B50002DE9F04706460D46904600240027A14691
:101B600033E000BF295D1FA000F064F900BF285DCD
:101B700004F086F8285D401EC3B201220021084609
:101B800003F090FE601CC4B204F084FD00BF04F0BA
:101B9000BDFBB74200DB07E004F004F8781CC7B2D5
:101BA00003F032FA0028F2D000BF15480068401C4C
:101BB00013490860B74208DB12480088401C1149ED
:101BC000088009F1010000F0FF09032C01DA444507
:101BD000C7DBB9F1000F02D00120BDE8F08700207B
:101BE000FBE7000050726F6265206368616E6E658E
:101BF0006C207374617274202564200D0A0000004B
:101C00003C0100203801002010B501F015FEFFF75F
:101C10004DFA10BD10B51948006840F4700017491E
:101C200008601748006840F0010015490860144931
:101C30000831096841F08001114A08321160002022
:101C400000E0401C1428FCD300200D490831086036
:101C50000B4800680B490840094908600A48091DFB
:101C60000860081F006820F48020091F0860002019
:101C700003490C31086004F0BDFF10BD88ED00E0A1
:101C800000380240FFFFF6FE1030002410B501219D
:101C9000880705F001FC012811D1800705F092FBAF
:101CA00001F092FD0121064801F0E2FD4FF40071C0
:101CB000044802F06EF90121880705F0E9FB10BD28
:101CC000006402400008024010B501211C4805F0E4
:101CD000E3FB012833D102F027F910B3194800883B
:101CE000401C1849088002F015F9164909888842F5
:101CF00017DA00BF1348018813A000F09BF800BF5B
:101D000000BF02F007F90446214614A000F092F843
:101D100000BF04F0FBF90A4805F054FB0020094914
:101D2000088001F00FFD0121124801F091FD01F042
:101D3000F7FB01F011FD0121014805F0A9FB10BDE1
:101D4000000800403800002073616D706C655F63AF
:101D50006F756E7425640D0A000000006765745F7E
:101D600073616D706C655F636F756E74282925648F
:101D70000D0A00000064024010B50121104805F072
:101D80008BFB01281BD1800705F01CFB0C4805F0DC
:101D900019FB4FF400710B4802F0FDF80A4800F0FF
:101DA00025FD01F0CFFC0121084801F051FD01F0B3
:101DB000B7FB01F0D1FC0121014805F069FB10BD22
:101DC0000004014000080240EC750020006402405D
:101DD000024612B909B9002070470248026041600A
:101DE0000120F9E79C00002000200149088070478D
:101DF0009800002000BFFEE710B504460C4801F033
:101E000065FE01F037FF4FF0AA31094801F044FFA9
:101E1000D32001F0BFFE21460548001D01F03CFF24
:101E2000D32001F0B7FE01F0BBFE012010BD000081
:101E300000C000080FB4054B10B503A9044A02986E
:101E400000F0EEF810BC5DF814FB0000E53C000863
:101E50004C0100200FB4084B10B504A902AA039846
:101E600000F0DEF8044602A9002000F070FC2046D5
:101E700010BC5DF814FB00004F27000802E008C802
:101E8000121F08C1002AFAD170477047002001E0F4
:101E900001C1121F002AFBD1704700002DE9FF5F2E
:101EA00082B00021DDE90430020DDDF840B00343CB
:101EB00018D044F61050A2F2FF3242431514119884
:101EC00001281FD0A5EB0B00401C5FEA000A4FF071
:101ED00000064E4FDFF83891B046504615D5CAF18E
:101EE000000413E0119801244AA3012801D16FEAEC
:101EF0000B010298119AC0E90031C0E9024206B014
:101F0000BDE8F09FCBF10000DFE704460021404A26
:101F1000491842EB0450CDE9001012E0E00707D069
:101F200032463B4640464946FEF731FB80468946ED
:101F300032463B4610461946FEF729FB06460F4639
:101F40006410002CEAD1DDE90401DDE90023BAF1D7
:101F5000000F06DAFEF71BFB42464B46FEF717FB67
:101F600005E0FEF786FB42464B46FEF782FB044641
:101F70000E460022284BFEF70BFC03D84FF0FF3033
:101F8000014607E00022254B20463146FEF758FA6D
:101F9000FEF780FD102409E0002C0ADB0A22002352
:101FA000FEF740FC039B30321A55641E50EA0102D2
:101FB000F2D1641C039AC4F111031444119A012A4A
:101FC00003D0012208430DD10AE0084304D00020C9
:101FD0004FF0110B119072E7A3EB0B056D1E0DE096
:101FE0005B4504DD4FF0000205F1010504E003DA72
:101FF0004FF00002A5F10105002AECD002981199DA
:10200000C0E90231C0E9004579E700000000144052
:102010000000F03F300000000000F0430000E03F0F
:102020002DE9FF4F95B09B468946064600250FE2F5
:10203000252877D100242746F84A0121059400E09D
:10204000044316F8013F203B01FA03F01042F7D198
:1020500030782A2811D06FF02F033078A0F13002A9
:10206000092A16D8059A44F0020402EB820203EB17
:1020700042021044761C0590EFE759F8042B0592B4
:10208000002A03DA504244F40054059044F002045C
:10209000761C30782E2816D116F8010F44F004046F
:1020A0002A280DD06FF02F023078A0F13003092BD1
:1020B00009D807EB870302EB4303C718761CF3E745
:1020C00059F8047B761C30786C280FD006DC4C283D
:1020D00017D068280DD06A2814D104E0742810D0D5
:1020E0007A280FD10DE044F400140AE044F480147F
:1020F00001E044F440147278824202D104F5801465
:10210000761C761C307866280BD013DC582877D0E4
:1021100009DC002875D04528F6D04628F4D0472899
:102120001AD19DE118E0632835D0642879D065285C
:1021300012D195E1702873D008DC6728F1D06928A6
:102140006FD06E280DD06F2806D1B5E073282CD043
:10215000752875D0782874D05A46179990476D1C09
:1021600075E1C4F30250022809D003280DD0D9F834
:10217000001004280DD00D6009F1040967E1D9F8B9
:102180000010EA17C1E90052F6E7D9F800100D80F7
:10219000F2E70D70F0E719F8041B8DF8001000202D
:1021A0008DF80100EA46012003E059F804AB4FF036
:1021B000FF3061074FF0000102D40DE008F101018A
:1021C0008846B9420FDA8045F8DB1AF80810002972
:1021D000F4D108E008F1010188468142FADB1AF8DF
:1021E00008100029F6D105985B46A0EB08072146A8
:1021F0003846179A00F094FA284400EB080507E0E7
:102200004DE029E10DE01AF8010B5A461799904765
:10221000B8F10108F7D25B4621463846179A13E118
:1022200042E00A220092C4F302524FF0000A022A4E
:1022300008D059F804CB032A4FEAEC710AD00DE01C
:1022400029E02AE009F1070121F00702F2E802C1C2
:10225000914609E00FFA8CFC4FEAEC71042A03D195
:102260004FFA8CFC4FEAEC71002907DA0A4600218C
:10227000DCF1000C61EB02012D2202E0220504D505
:102280002B228DF80420012203E0E20701D0202256
:10229000F7E7904659E00A2102E010220DE01021F4
:1022A0004FF0000A00910BE010224FF0000A44F0BA
:1022B00004040827009203E008224FF0000A00926D
:1022C000C4F30252022A05D059F804CB0021032A94
:1022D00008D009E009F1070121F00702F2E802C184
:1022E000914605E01FFA8CFC042A01D10CF0FF0C8A
:1022F0004FF00008220728D5702806D0009B83F0F5
:10230000100353EA0A0305D00EE040228DF80420A2
:10231000012208E05CEA010206D030228DF8042098
:102320008DF8050002229046009B83F0080353EAD3
:102330000A030AD15CEA010201D1620705D5302205
:102340008DF804204FF001087F1E582804D034A0D7
:1023500003900EA802900DE036A0F9E753466046C0
:10236000009AFEF75FFA84460398825C0298401E4A
:10237000029002705CEA0100F0D1029806A9081AE6
:1023800000F1200A600702D524F4803400E0012720
:10239000574502DDA7EB0A0000E0002000EB0A0130
:1023A000009005984144401A0590E00306D45B462E
:1023B0002146179A059800F0B3F90544002706E076
:1023C00001A85A46C05D179990476D1C7F1C474570
:1023D000F6DBE0030CD55B462146179A059800F022
:1023E0009FF9054404E030205A46179990476D1C28
:1023F0000099481E00900029F5DC08E00298029937
:102400005A460078491C0291179990476D1CBAF101
:102410000001AAF1010AF1DC65E1000009280100D0
:10242000303132333435363738396162636465664A
:10243000000000003031323334353637383941420C
:10244000434445460000000000F058F90544761C5E
:10245000307800287FF4ECAD19B02846BDE8F08F45
:10246000620700D4062709F1070222F0070CFCE8F6
:102470000223E14603F000485FEA080C02D00FF2A5
:10248000702C0DE05FEA045C02D50FF2682C07E0C7
:102490005FEAC47C02D00FF2602C01E0AFF2700C56
:1024A0004FF0FF3823F00043CDF850C065280CD022
:1024B00006DC452809D046281DD047283DD13DE0FF
:1024C000662818D067287ED138E00021112F01DB63
:1024D000112000E0781CCDE9000106A90EA8FFF745
:1024E000DDFCDDE90F010E9A03910021009207F156
:1024F000010A04914DE04FF000400097CDE9011032
:1025000006A90EA8FFF7CAFCDDE90F0203920E9B95
:1025100011990022DDF80CA00093049211B9791CE6
:1025200000EB010AB7EB0A0004D4C0F1FF3007F159
:10253000010A0490AAEB0700019044E0012F00DAA1
:1025400001270021112F01DD112000E03846CDE9DF
:10255000000106A90EA8FFF7A1FCDDE90F010E9A04
:102560000391002104910092BA4621070CD40399EB
:10257000514500DA8A46BAF1010F05DD009AAAF149
:102580000101515C302908D0B84202DA10F1040F81
:1025900006DA0121CDE9011015E0AAF10101E9E710
:1025A000002805DC049901440491AAEB000102E033
:1025B000411C514500DD8A460499401A401C019097
:1025C0004FF000400290200704D40198504501DBF1
:1025D000CDF8048000208DF84F0002980DF14F07D0
:1025E000B0F1004F25D02B200E9002984FF002083A
:1025F00000280CDA404202902D200E9007E00A21BC
:102600000298FEF7F9F83031029007F8011DB8F191
:102610000001A8F10108F2DC02980028EFD1791E30
:102620000E980870307800F0200040F0450007F860
:10263000020D12A8C01B00F107081498007800B121
:10264000012000EB0A01019801EBE071059841447B
:10265000401A401E0590E00306D45B462146179AB7
:10266000059800F05DF805441498007818B15A46B2
:10267000179990476D1CE00324D55B462146179AB5
:10268000059800F04DF805441CE00498002807DB8D
:10269000DDE90301884203DD0098405C179901E001
:1026A000179930205A469047049805F10105401CBF
:1026B00004900198401E019004D12E205A4617998B
:1026C00090476D1CBAF10001AAF1010ADDDC05E0BA
:1026D00017F8010B5A46179990476D1CB8F1000185
:1026E000A8F10108F4DC5B462146179A0598ABE691
:1026F0002D0000002B000000200000002DE9F0411B
:10270000044600251E461746880404D405E03946D1
:102710002020B0476D1C641EF9D52846BDE8F08125
:102720002DE9F041044600251E469046C80301D518
:10273000302700E02027880404D505E041463846CC
:10274000B0476D1C641EF9D52846BDE8F0810A68C3
:10275000531C0B601070704770B505460E4631462D
:10276000284600F077F8044600BF214602A0FFF794
:1027700061FB00BF204670BD6261744164632069E3
:10278000732025642076616C75650D0A00000000D9
:1027900070B505460024002617E0104850F82400C4
:1027A0000F490988B0FBF1F00C4941F824000846B4
:1027B00030F8240025F8140000BF35F8141009A0E3
:1027C000FFF738FB00BF601C84B2B4F5006FE4DB98
:1027D00000BF05A0FFF72EFB00BF70BDC055002055
:1027E0004E00002025642C000D0A00002DE9F04168
:1027F000054600270DB9BDE8F0810024002620E041
:10280000124850F8240035F82610C1F30901084495
:102810000E4941F82400601C51F8200055F826109C
:1028200000EB1141094A601C42F8201000BF55F826
:10283000261007A0FFF7FEFA00BFA01C84B2701C90
:1028400086B2B4F5006FDBDB00BFD4E7C0550020D3
:1028500025782C0070B505460C460223224600213F
:10286000284600F01FF80021284600F075F800BF48
:102870000221284600F00EF80028F9D0022128464F
:1028800000F004F8284600F063F870BD02688A433F
:102890000260704702461068084008B10120704786
:1028A0000020FCE7F0B51D4606290CD2436B01EB76
:1028B00081071F26BE40B34301EB810602FA06F6EC
:1028C0003343436322E00C290ED2036B8E1F06EBC9
:1028D00086071F26BE40B3438E1F06EB860602FA0C
:1028E00006F63343036311E010290FD2C36AA1F146
:1028F0000C0606EB86071F26BE40B343A1F10C066B
:1029000006EB860602FA06F63343C3620A2A0CD2A5
:10291000046902EB42070726BE40B44302EB4206BD
:1029200005FA06F63443046111E0132A0FD2C46895
:10293000A2F10A0606EB46070726BE40B443A2F101
:102940000A0606EB460605FA06F63443C460F0BDF7
:102950000146C86C80B2704711B101290AD104E068
:10296000826842F08042826005E0826842F4800220
:10297000826000E000BF00BF7047000010B5044651
:1029800003492068FDF790FC0248008880B210BD22
:10299000C2960020DC0000202DE9F04104460E46DE
:1029A000904600250027092E01DABDE8F0810AE0F3
:1029B00020782C2803D0681C85B2641C03E0641CBA
:1029C000681C85B201E0B542F2DB00BF00BF2946BA
:1029D00011A0FFF72FFA00BF00BF314612A0FFF78A
:1029E00029FA00BF00BF217813A0FFF723FA00BF28
:1029F000B5420FDA2078312806D10120124908703B
:102A000012A0FFF717FA05E000200F49087014A084
:102A1000FFF710FA00BFC8E7646174615F706F73FD
:102A2000203D2025640D0A00646174615F6C656E51
:102A3000203D2025640D0A0070646174615B305D87
:102A4000203D2025640D0A00E10000206E657477AA
:102A50006F726B2070732073756363210D0A000021
:102A60006E6574776F726B207073206661696C6538
:102A700064210D0A00000000F8B506460D46174611
:102A800000240020009005B9F8BD0AE0072231A11A
:102A90003046FDF7FCFB18B1761C601CC4B200E0A8
:102AA00001E0AC42F2DB00BF00BF29462BA0FFF7DC
:102AB000C1F900BF00BF21462CA0FFF7BBF900BF42
:102AC000AC4203D12DA0FFF7B5F9DDE7002407E004
:102AD0002046611CCCB2305C2C2800D000E001E024
:102AE000AC42F5DB00BF30196A4629A1FDF7E6FBD1
:102AF00000BFBDF8001027A0FFF79CF900BF07E05A
:102B00002046611CCCB2305C2C2800D000E001E0F3
:102B1000AC42F5DB00BF00BF294610A0FFF78AF9E1
:102B200000BF00BF214611A0FFF784F900BFAC42EF
:102B30000EDA3019BDF800201B4901F059FBBDF831
:102B40000010194802F070FE174918A0FFF772F93B
:102B500000BF99E72B4E534F4E4D4900646174619D
:102B60005F6C656E203D2025640D0A006461746110
:102B70005F706F73203D2025640D0A00616E616CEB
:102B800079736973206661696C6564210D0A0000C0
:102B9000256400006E65745F646174615F6C656ECE
:102BA000203D2025640D0A002C9600207265637676
:102BB00020666F726D20736572766572203A2025EB
:102BC0007300000010B500200649087006A0FFF74A
:102BD00031F900F0EDF940210748FDF71AFB01201B
:102BE00010BD0000D7000020617420706172736511
:102BF000206465696E697400EC95002010B50D487D
:102C0000007808B1012010BD0BA0FFF713F9402197
:102C10000D48FDF7FEFA00BF00F0EAF900B903E045
:102C2000012004490870EEE700BFFFF7CBFF00204A
:102C3000E9E70000D70000206174207061727365BD
:102C400020696E6974000000EC95002070B505469F
:102C50000E4600BF2A4631461DA0FFF7EBF800BF25
:102C600000242DE004EB44001F4A52F820102846AF
:102C7000FDF7E6FA78B104EB44001B4901EB800054
:102C8000826804EB440001EB80003146436828462B
:102C90009847012070BD04EB4400134951F820000F
:102CA00040B104EB44000A4652F820100FA0FFF791
:102CB000C1F803E0214612A0FFF7BCF8601CC4B2C3
:102CC000052CCFDB15A0FFF7B5F80020E2E70000E8
:102CD000646174616C656E3A25642C207374723A79
:102CE000282573290D0A0000EC9500204E6F7420F2
:102CF00066696E64206B65792025730D0A000000FB
:102D00006C697374656E206B65795B25645D206901
:102D100073204E554C4C0D0A000000006D61746329
:102D200068206661696C65640D0A00002DE9F04158
:102D300005460E461746002410E004EB44001C4AEA
:102D400052F820102846FDF794FA28B919A0FFF789
:102D500071F80020BDE8F081601CC4B2052CECDBEA
:102D6000002120E001EB4100114A52F82000C0B9D7
:102D700001EB410002EB80000022026042608260B1
:102D800001EB41000A4A42F8205001EB410002EBFE
:102D90008000466001EB410002EB8000876001206B
:102DA000D8E7481CC1B20529DCDB0020D2E70000CF
:102DB000EC9500205468697320707265666978200C
:102DC000686173206265656E2072656769737465FA
:102DD000726564002DE9F04104460D4617461E4613
:102DE0004FF0000814B90020BDE8F0810DB90020B3
:102DF000FAE721460EA0FFF71DF800BF324629462C
:102E0000204600F0B7F9A84200D00BE03FB13246AF
:102E100002210AA000F0AEF9022800D002E04FF033
:102E2000010800BF00BF304600F0FCFC4046DBE775
:102E3000415420636D643A25730D0A000D0A0000A9
:102E40002DE9FC5F04460E461546DDE90CA7DDF8CA
:102E500038800020019081462248007810B9002077
:102E6000BDE8FC9F0CB90020FAE70DB90020F7E798
:102E700021461DA0FEF7DEFF2046FDF7F3F942468E
:102E800001460090204600F075F983462046FDF784
:102E9000E9F9834501D00020E2E746B1424602212C
:102EA00014A000F067F9022801D00020D8E700BF85
:102EB00009F1C809C8220021504600F0DBF838802B
:102EC000388838B129465046FDF7BAF920B10120BB
:102ED000019003E000200190C145E9D300BF0198B3
:102EE000BEE70000D7000020415420636D643A25FE
:102EF000730D0A000D0A00002DE9F04104460D464D
:102F0000904600260027092D01DABDE8F0810AE08D
:102F100020783A2803D0701C86B2641C03E0641C3D
:102F2000701C86B201E0AE42F2DB00BFAE422ADA8C
:102F30002078302824DB2078392821DC607830287C
:102F40000FDB607839280CDC607830382178303934
:102F50000A2212FB0100C7B239460CA0FEF76AFF35
:102F600011E060782C2807D120783038C7B2394674
:102F700006A0FEF75FFF06E008A0FEF75BFF02E099
:102F800006A0FEF757FF00BFBFE7000052535349AA
:102F90002069732025640D0A00000000435351206E
:102FA000666F726D6174206572726F72210D0A0016
:102FB00010B508A0FEF73EFF00200A4908700A4934
:102FC0000A4804F01DFC08496031084804F018FC68
:102FD000012010BD61742075617274206465696E92
:102FE00069740000D900002020000010004C00404F
:102FF00010B50E48007808B1012010BD0CA0FEF7F6
:1030000019FF0F490F48FEF7E3FE0849087008460C
:10301000007818B10CA0FEF70DFF04E000BF0FA070
:10302000FEF708FF00BF01480078E6E7D90000205E
:103030006174207561727420696E6974210D0A00D3
:10304000DC000020C296002061742075617274203B
:10305000696E6974206F6B210D0A00006174207520
:1030600061727420696E6974206661696C6564219F
:103070000D0A00002DE9F041064688461446002757
:1030800000252D48007810B90020BDE8F08100BF70
:103090002A480078002844D0FEF7A6FE00BF284842
:1030A000016828A0FEF7C6FE00BF25480068022878
:1030B0002AD92949224A12681144881E022227A1CE
:1030C000FDF7E5F848B124491D4A12681144881EED
:1030D000022223A1FDF7DBF8B0B900201E49184AEF
:1030E000126888543046FDF7DFF800BF1A4A1448CA
:1030F00001681CA0FEF79EFE00BF0021104800687A
:10310000801E154A115406E01948007818B112497A
:103110003046FDF7C9F800200849087008480768DC
:1031200006E0052000F07EFB681D85B2A542AFD306
:1031300000BF3846A9E70000D9000020D8000020D1
:10314000DC00002061745F726563765F6C656E20E1
:103150003D202564200D0A00C29600200D0A0000C3
:103160004F4B000052282564293A257300000000C7
:10317000E000002070B505460C46164600200549C3
:103180000860A2B24FF6FF732946034804F070FAB4
:10319000204670BDDC000020004C004010B52DED35
:1031A000068B04469FED160AB0EE408A2046FDF7D6
:1031B000CFFA41EC1A0B9FED130B53EC102BFDF7DC
:1031C000E6F941EC190BFDF7FBFA00EE100ADFED12
:1031D0000F0A80EE201AB0EE418A00BF18EE100AE6
:1031E000FDF7C3FA41EC190B53EC192B08A0FEF7BD
:1031F00021FE00BFB0EE480ABDEC068B10BD0000FA
:10320000000000006666666666660A40000080454B
:10321000766F6C20697320256620760D0A00000009
:103220002DE9F04106460C461746002507E0725D81
:1032300005A12046FEF70EFE681C85B2A41CBD4207
:10324000F5DBBDE8F08100002530325800000000B9
:1032500010B500240E48007848B10E4B0E4A0F49B5
:103260000F4801F089FB032000F0DCFA0EE009E0D2
:10327000601CC4B203F058FA03F0A8F800B901E0EA
:10328000012010BD032CF3DB0020FAE70120F8E752
:103290004A00002000380040504100206C430020CC
:1032A0005043002010B50648007808B1002010BD3A
:1032B00001F074FE022801D00120F8E70020F6E7B3
:1032C0004A00002010B540F6044002F07FFE4FF4A3
:1032D0000041184800F026FF08B1012000E000205E
:1032E0001549087000BF4FF40041124800F01AFF62
:1032F0000446214611A0FEF79DFD00BF0E48007850
:1033000030B100BF11A0FEF795FD00BF012010BD38
:1033100000BF11A0FEF78EFD00BF01F0ADFDFEF76E
:10332000C7F81049104801F0FDFDFFF767FC03F0F6
:10333000FBF9ECE7001002404A0000204E422070EA
:103340006F72742025640D0A000000006C6F7261BA
:1033500020696E69740D0A006E6220696E69740DD1
:103360000A0000004C0000205445002010B5002445
:103370002348007870B100BF22A0FEF75BFD00BFBC
:103380000021234801F0AEFA2249214801F014FB44
:10339000012010BD00BF20A0FEF74CFD00BF234858
:1033A0000188234802F01AFC07E002F0AFFF601C1E
:1033B000C4B2FFF777FF00B101E0012CF5DB00BFDD
:1033C000FFF770FF08B90020E3E700BF02F09EFF9F
:1033D00018480078012801D102F0E4FB16A0FEF79E
:1033E00029FD02F08DFF282804DD012002F008FCF1
:1033F0000120CEE7FFF756FF0028E7D10120C8E7FC
:103400004A0000206465746563740D0A00000000C2
:103410005041002098450020636F6D6D756E6963A3
:103420006174696F6E5F7265710D0A004C00002057
:10343000544500202A0100206E6574776F726B205E
:1034400077616974207265637620666F726D207390
:1034500065727665722E2E2E0D0A000030B502467A
:10346000002000230BE012F8015B85EA2024E4B27F
:10347000044D35F8144084EA0024A0B25B1C8B4252
:10348000F1DB30BD787A000870B5034610460024A1
:103490000BE013F8016B86EA2025EDB2044E36F8F6
:1034A000155085EA0025A8B2641C8C42F1DB70BD82
:1034B000787A000890B921B1012905D002290BD1F1
:1034C00006E0114B1A6008E00F4B1B1D1A6004E068
:1034D0000D4B08331A6000E000BF13E021B1012951
:1034E00006D002290CD107E0074B0C331A6008E024
:1034F000054B10331A6004E0034B14331A6000E0EC
:1035000000BF00BF70470000087400400348006817
:1035100040F00100014908607047000000000550BC
:1035200000B589B04FF4406002F050FD40F6014014
:1035300002F04CFD40F6024002F048FD40F6034028
:1035400002F044FD40F6044002F040FD4FF45060AC
:1035500002F03CFD4FF4807300220221744800F019
:10356000E9FD4FF0E0614FF4C00002F08FFC402213
:103570000D216F4800F0DEFC10220D216C4800F098
:10358000D9FC80220D216B4800F0D4FC4FF480520E
:103590000D21694800F0CEFC4FF480620D21664891
:1035A00000F0C8FC4FF400720D21624800F0C2FC2C
:1035B0004FF480720D215F4800F0BCFC08220D2101
:1035C0005E4800F0B7FC4FF400620D215A4800F04D
:1035D000B1FC02220D215A4800F0ACFC4FF480727D
:1035E0000D21554800F0A6FC4FF480620D21504893
:1035F00000F0A0FC4FF400720D214D4800F09AFC41
:10360000032000210B460222CDE90010402148484A
:1036100000F0B7FD032000210B460222CDE9001087
:103620001021434800F0ADFD032000210B4602228B
:10363000CDE9001080213F4800F0A3FD03200021C8
:103640000B460222CDE90010D1023B4800F099FD63
:10365000032000210B460222CDE90010510236481A
:1036600000F08FFD032000210B460222CDE900105F
:103670001102304800F085FD032000210B46022294
:10368000CDE90010D1012B4800F07BFD0320002183
:103690000B460222CDE900100821284800F071FDF8
:1036A000032000210B460222CDE90010910222489E
:1036B00000F067FD032000210B460222CDE9001037
:1036C00011461F4800F05DFD032000210B46022239
:1036D000CDE90010D101184800F053FD032000216E
:1036E0000B460222CDE900105102114800F049FDBD
:1036F000032000210B460222CDE9001011020C48E4
:1037000000F03FFD00F084F8002004904020059078
:10371000802006900020039007904FF4806008906E
:1037200003A800F05BF8FFF7F1FE09B000BD000050
:10373000000002400004024000080240000C024069
:10374000001002400348006820F4804001490860EE
:10375000704700000000055000B591B040F61640DB
:1037600002F034FC0121154800F0A5F800200E906D
:10377000134808904FF480500C9001200990114894
:103780000A9000200B904FF400600F904FF44030EF
:10379000109001200D901C220AA96846FCF720FD1C
:1037A00001210648DDE9082300F0D8F8012211467E
:1037B000024800F06DF811B000BD00000064024046
:1037C00028000550EC7500200348006840F4804054
:1037D00001490860704700000000055000210B4AB5
:1037E000126844F201039A43084B1A6002681143BD
:1037F0004268114382681143C26811430269114350
:10380000426911431A4611607047000000000550DC
:103810000348006820F0100001490860704700006C
:10382000000005500349086000BF024909680029EB
:10383000FBD17047340000200448006820B10348E1
:103840000068401E014908607047000034000020F5
:1038500010B501EB4102D30000F11002D25822F062
:10386000010301EB4102D40000F11002135110BD1D
:1038700010B501EB4102D30000F11002D25842F022
:10388000010301EB4102D40000F11002135110BDFD
:1038900030B5134601EB4104E50000F11004625914
:1038A00022F0606242EA436201EB4104E50000F16C
:1038B0001004625130BD10B501EB4102D30000F19C
:1038C0001002D25822F0010301EB4102D40000F1B2
:1038D00010021351002301EB4102D40000F1100249
:1038E000135101EB4102D40000F11402135101EB1A
:1038F0004102D40000F11802135101EB4102D4003F
:1039000000F11C02135101EB4102D40000F120022E
:10391000135101EB4102D40000F124021351042998
:103920000CDA01EB41025300C1F3400203EB8203C6
:103930003D229A4083681A4382600DE00A1FD1B28B
:1039400001EB41025300C1F3400203EB82033D222D
:103950009A40C3681A43C26010BD00000FB430B56E
:1039600001EB4103DC0000F124031B5923F00404A4
:1039700001EB4103DD0000F124035C5101EB410345
:10398000DD0000F11803059C5C5101EB4103DD00F3
:1039900000F11C03079C5C5101EB4103DD0000F1C9
:1039A00014030C9C5C5101EB4103DC0000F110039B
:1039B0001A59414B1A40099B43EA83030D9C234348
:1039C0000B9C23431A4301EB4103DC0000F110037D
:1039D0001A51069B73B901EB4103DC0000F110039F
:1039E0001B5943F4007401EB4103DD0000F11003A7
:1039F0005C511FE0069B012B0ED101EB4103DC0063
:103A000000F110031B5923F4007401EB4103DD00A6
:103A100000F110035C510DE001EB4103DC0000F10B
:103A200010031B5943F4004401EB4103DD0000F196
:103A300010035C51089B73B901EB4103DC0000F1FA
:103A400010031B5943F4806401EB4103DD0000F1D6
:103A500010035C510DE001EB4103DC0000F11003A9
:103A60001B5923F4806401EB4103DD0000F11003D6
:103A70005C510A9B73B901EB4103DC0000F11003B8
:103A80001B5943F4807401EB4103DD0000F1100386
:103A90005C510DE001EB4103DC0000F110031B5908
:103AA00023F4807401EB4103DD0000F110035C514D
:103AB00030BC5DF814FB00003F87FCFF10B50248E6
:103AC00003F089FC10BD0000000800402DE9F04122
:103AD00004460026002500F0CDF8D32000F05AF867
:103AE000FDF7DCFA054600BF204600F0B3F90746B3
:103AF00039461CA0FEF79EF900BF1E48844202D83A
:103B0000B4F1006F02D2FF20BDE8F08113E0FDF7B1
:103B1000C5FA401B41F2883188420BD900BF16A07C
:103B2000FEF788F900BF204600F094F9074600F040
:103B30004BF8E9E700BF204600F08CF9074600F09B
:103B400043F80028E3D100BF00BF204600F082F90F
:103B50000746394603A0FEF76DF900BF00F020F8D4
:103B60000020D1E7616464722069732025307820D9
:103B70000D0A000000000808666D63207365637419
:103B80006F72206572617365206661696C6564207F
:103B90000D0A000001490860704700000C3C02401B
:103BA0000348006840F00040014908607047000089
:103BB000103C024000B5012200BF00F031F802467F
:103BC000012AFAD0104600BD10B503460024FFF7C5
:103BD000F1FF0446FCB91148006820F0F8000F49D5
:103BE00008600846006843F0020108430B4908607A
:103BF0000846006840F480300860FFF7DBFF0446A9
:103C00000648006820F00200044908600846006881
:103C100020F0F8000860204610BD0000103C024073
:103C200000201349096801F48031B1F5803F01D1CA
:103C300001201CE00E49096801F0100109B10520BE
:103C400015E00B49096801F4807109B102200EE00A
:103C50000749096801F0EF0109B1072007E00449AD
:103C6000096801F0020109B1062000E00020704758
:103C70000C3C02400548006800F0004028B10448B0
:103C800002490C390860034808607047103C024044
:103C900023016745AB89EFCD30B503460C460025BF
:103CA000FFF788FF0546CDB90D48006820F4407045
:103CB0000B4908600846006840F400700860084638
:103CC000006840F0010008601C60FFF773FF0546C4
:103CD0000348006820F0010001490860284630BD13
:103CE000103C024070B504460D46E1B2054803F0B1
:103CF000BBFC00BF0721034803F063FD0028F9D097
:103D0000204670BD0044004010B50446152202490B
:103D10002046FCF765FA10BD000100202DE9F041B6
:103D200004460E4617460025194904F12F00FCF7FA
:103D3000BBFA3B213220015584F833603420015511
:103D4000FDF7AEF884F835003B21362001550A20F6
:103D500084F837003820015500BF29460DA0FEF732
:103D600069F800BF281284F839003A2005553B2134
:103D700009550D480088001284F83C000A48017873
:103D80003D2001553B213E200155BDE8F08100005A
:103D90002B01002074656D70657261747572652009
:103DA0003D2025640D0A0000360100201CB541F2BB
:103DB000110002F00BF94FF4406002F007F9042201
:103DC0000721224800F0B6F8022000210B460246E7
:103DD000CDE9001004211D4800F0D3F90822072185
:103DE0001A4800F0A7F8022000210B460246CDE950
:103DF00000100821154800F0C4F9154803F06EFCC6
:103E00004FF4E131124803F0B7FB0021104803F0F2
:103E10005DFD00210E4803F049FD00210C4803F030
:103E200035FD00210A4803F0E3FC0021084803F0B7
:103E3000D7FC0421064803F031FD0821044803F0B3
:103E40003DFD034803F0B8FC1CBD0000000002402B
:103E50000044004010B5044600BF21461EA0FDF7F7
:103E6000E9FF00BF2048844201D2002010BD1F4856
:103E7000844201D20820F9E71D48844201D2102073
:103E8000F4E71C48844201D21820EFE71A48844224
:103E900001D22020EAE71948844201D22820E5E730
:103EA0001748844201D23020E0E71648844201D20C
:103EB0003820DBE71448844201D24020D6E713487B
:103EC000844201D24820D1E71148844201D25020D7
:103ED000CCE75820CAE7000061646472203D2025C9
:103EE00030780D0A00000000004000080080000843
:103EF00000C00008000001080000020800000408DB
:103F0000000006080000080800000A0800000C086D
:103F100000000E0801480088704700004E00002095
:103F200000487047B84500200148007870470000FD
:103F300050000020F0B503461C6A5D6A00200DE0C9
:103F40000126864016403EB187000F26BE40B4438E
:103F5000860001FA06F63443461CB0B20828EFD3B7
:103F6000082011E00126864016405EB1A0F1080647
:103F7000B7000F26BE40B543A0F10806B60001FA0F
:103F800006F63543461CB0B21028EBD31C625D62C6
:103F9000F0BD816270478161704700001CB54FF42D
:103FA000406002F013F840F6014002F00FF840F6CE
:103FB000024002F00BF840F6034002F007F840F62A
:103FC000044002F003F8022000210B460122CDE953
:103FD00000104021404800F0D4F800231A464FF466
:103FE00000413D4800F090F84FF400413A4800F09D
:103FF00099F8002839D04FF4604205213748FFF77F
:1040000099FF022000210B460246CDE900104FF433
:104010002041324800F0B5F800231A464FF48041A1
:104020002E4800F071F8022000210B460122CDE954
:1040300000108102294800F0A4F8022000210B465C
:104040000122CDE90010C102244800F09AF80023B3
:104050001A464FF40041204800F056F800BF20A057
:10406000FDF7E8FE00BF00F071FE022000210B46C4
:104070000122CDE9001001021E4800F082F8FFF78E
:104080004FFAFFF769FB022000210B460122CDE920
:1040900000104021114800F074F8022000210B4666
:1040A0000122CDE900108021124800F06AF800BF1B
:1040B0004FF40041084800F035F8044621460EA0B0
:1040C000FDF7B8FE00BF03F009FA4FF4007109488C
:1040D000FFF761FF1CBD0000001002400004024019
:1040E0004C4F5241202053504920494E4954200DF5
:1040F0000A000000000802404E4220706F727420D7
:1041000025640D0A000000002DE9F04107460C4629
:1041100015461E46234632462946384600F00AF820
:10412000BDE8F08102461069084008B101207047DF
:104130000020FCE7F0B504460D4616462168E2680B
:10414000002019E0012787401F409FB14FEA400C33
:10415000032707FA0CF7B943470005FA07F7394375
:104160004FEA400C032707FA0CF7BA43470006FA58
:1041700007F73A43471CB8B21028E3D32160E26046
:10418000F0BD2DE9F04707460C4615461E46DDE911
:1041900008892346324629463846FFF7CBFF234697
:1041A0004A464146384600F002F8BDE8F087F0B5CF
:1041B0000C461546012C03D146681E43466002E0BA
:1041C00046689E434660826800210DE001268E40CD
:1041D0001E403EB14F000326BE40B2434E0005FADA
:1041E00006F632434E1CB1B21029EFD38260F0BD07
:1041F00070B503460024002500261DE018783928F4
:1042000003DD18783738C5B202E018783038C5B207
:104210005878392803DD58783738C6B202E0587824
:104220003038C6B246EA051008709B1C491C601C59
:1042300084B2944200DB02E018780028DED100BF8F
:1042400000200870012070BD70B504460D46462D53
:104250001AD006DC432D0FD0442D0CD0452D14D19F
:104260000BE04F2D0AD0522D0FD1094801F038FF35
:10427000206025710AE000BF00BF00BF044801F0C4
:104280002FFF2060257101E000E000BF00BF70BD7E
:104290001000040870B504460E46154620794428DF
:1042A00010D0522820D1E680257200BF314610A0E0
:1042B000FDF7C0FD00BF00BF294611A0FDF7BAFD04
:1042C00000BF12E024F8EE6FA570207804F8E90C26
:1042D00034F8EE09010AA171E57100BF31460DA065
:1042E000FDF7A8FD00BF00E000BF00BF70BD0000EB
:1042F0005220746F744E756D203D2025640D0A00A8
:104300005220656163684C656E203D2025640D0A6E
:10431000000000006E756D203A2025640D0A000033
:1043200030B50B4600210479442C0DD190F8F040B3
:10433000944209D100BF05E05D5C00F108046554BA
:104340004C1CE1B29142F7DB30BD00002DE9F04199
:1043500004468846B8F1080F06D0B8F1100F6DD0AA
:10436000B8F1180F7ED135E0062104F1F800FFF70F
:1043700075F8FE21095B88422BD100BF3F4801F050
:10438000B7FE064632460B463DA0FDF753FD00BF83
:1043900000BF40A0D4F8F810FDF74CFD00BF00BFEF
:1043A00036480C3001F09CFE0646314639A0FDF738
:1043B00041FD00BF31480C3001F092FED4F8F810F6
:1043C000884204D1FC20055D2846BDE8F08100202C
:1043D000FBE750E0162104F1F800FFF73FF84FF437
:1043E0008771095B884228D100BF244801F080FE14
:1043F000064632460B4622A0FDF71CFD00BF00BF5B
:10440000D4E93E63324628A0FDF714FD00BF1B48E7
:1044100001F06EFED4E93E235040594008430AD1D2
:104420004FF48670055D00BF294624A0FDF702FD0C
:1044300000BF2846C9E70020C7E71CE00E2104F1B1
:10444000F800FFF70BF84FF48371095B88420FD136
:104450000A480C3001F044FED4F8F810884205D127
:10446000FC2000E005E0055D2846AEE70020ACE753
:1044700000BF0020A9E700BF0020A6E70400040851
:1044800073656E736F7249443A20256C6C750D0A22
:1044900000000000727873656E736F7249442020CB
:1044A0003A2025640D0A00006E6574776F726B49BF
:1044B0004420203A20256C6C750D0A004C4F535354
:1044C0005F504B475F4C454E2020696E737420252A
:1044D000640D0A002DE9F84F044689460025AB46D5
:1044E00041F22800009094F8EC10009890FBF1F055
:1044F00000F0FF0A94F8EC10009890FBF1F201FB39
:104500001200C7B21FB10AF1010000F0FF0A2079C2
:10451000452867D004DC432863D044287DD104E0DB
:104520004F286CD0522878D147E000264FF0010880
:104530001AE094F8EC2041462046FFF7ABFE94F8D1
:10454000EC2009EB06012046FFF7EAFE204600F0CA
:104550007FF80220FFF766F908F101001FFA80F8E2
:1045600094F8EC00304486B2D045E2DB27B300BFBC
:104570002CA00099FDF75EFC00BF00BF39462DA0BE
:10458000FDF758FC00BF3A4651462046FFF782FE31
:104590004FF0000B0BE019F8061004F1080000F8CA
:1045A0000B100BF1010000F0FF0B701C86B2BB4535
:1045B000F1DB204600F04CF830E000250EE094F8E6
:1045C000EC2051462046FFF765FE204600F040F8FB
:1045D0004FF44870FFF726F9681CC5B2032DEEDBD7
:1045E0001CE000BF002507E0204600F031F80A205B
:1045F000FFF718F9681CC5B2032DF5DB00BF0025D5
:1046000008E00AE0204600F023F80A20FFF70AF944
:10461000681CC5B2032DF5DB00E000BF00BFBDE89C
:10462000F88F0000746F745F6C656E202564200D38
:104630000A000000726573696475616C446174619D
:10464000566F6C756D65202564200D0A0000000012
:1046500070B5044600262679442E21D0522E46D12C
:104660000C250A212046FEF7F9FE608194F8E80047
:10467000012814D1E9B24FF47A72D4F8F801FCF7AA
:1046800097FFEAB24FF47A732146D4F8F801FDF7A8
:1046900013F820B100BF2AA0FDF7CCFB00BF4DE00E
:1046A000E825E6212046FEF7D9FEA4F8E60094F8B6
:1046B000E80001281AD1E9B24FF47A72D4F8F8016F
:1046C000FCF776FFEAB24FF47A732146D4F8F8018A
:1046D000FCF7F2FF50B100BF1CA0FDF7ABFB00BF21
:1046E00000BF29461CA0FDF7A5FB00BF26E008255A
:1046F00006212046FEF7B2FEE08094F8E80001288B
:104700001BD1E9B24FF47A72D4F8F801FCF750FFEC
:10471000EAB24FF47A732146D4F8F801FCF7CCFFE3
:1047200058B100BF217911A0FDF784FB00BF00BF85
:10473000294609A0FDF77EFB00BF00BF00BF70BD8A
:10474000696E73742052200D0A000000696E737444
:1047500020440D0A00000000747820646174612018
:104760006C656E2025640D0A00000000696E73748C
:104770002025640D0A0000002DE9FF4F85B080461A
:104780008B46994600200390019041F22800049046
:1047900098F8EC50049890FBF5F0C0B202900498A1
:1047A00090FBF5F105FB110000F0FF0A01214046E6
:1047B00000F098F840461299FFF746FD40461299DE
:1047C000FFF742FDBAF1000F03D00298401CC0B2BF
:1047D000029098F8040044285DD10027012626E0C5
:1047E00000241DE019F80400B04217D100BF19F8E9
:1047F00004102CA0FDF71EFB00BFEAB23146404674
:10480000FFF748FDEAB20BEB07014046FFF788FDD2
:104810004046FFF71DFF0220FFF704F8601C84B23A
:1048200007988442DEDB701C86B2781987B2029842
:104830008642D5DB00242BE019F80400132825D18B
:1048400000BF1DA00499FDF7F5FA00BF00BF514657
:104850001DA0FDF7EFFA00BF524640460299FFF750
:1048600019FD002003900BE01BF8072008F1080059
:10487000039942540398401CC0B20390781C87B23D
:1048800003985045F0DB4046FFF7E2FE601C84B21F
:1048900007988442D0DB0021404600F023F809B09D
:1048A000BDE8F08F706B67427566665B6A5D203DA0
:1048B0002025640D0A000000746F745F6C656E2023
:1048C0002564200D0A000000726573696475616CCF
:1048D00044617461566F6C756D65202564200D0A06
:1048E000000000007CB504460D4684F8E85094F8BA
:1048F000E800012810D10A200721CDE90010114855
:10490000027901231048FCF786FF4FF4FA62102168
:10491000D4F8F801FCF74CFE94F8E80088B90A20B6
:104920000721CDE900100748027901230921064833
:10493000FCF771FF4FF4FA621021D4F8F801FCF78C
:10494000D5FD7CBD400000206C43002070B50546BD
:104950000E46144601212846FFF7C4FF214628468B
:10496000FFF772FC31462846FFF7B4FD00212846C8
:10497000FFF7B8FF70BD00002DE9F04104460E4678
:1049800015461F460B49E1600815A0606161800073
:10499000206108466060C0142060A7613460C5F8DB
:1049A000F861DE2085F8EC0000212846FFF79AFF29
:1049B000BDE8F081000402402DE9F84F05460C46A1
:1049C0004FF0000A00264FF0060900270120944905
:1049D0000870002093490870FCF760FB8046FCF7E4
:1049E0005DFB834615E18F48007805287ED2DFE81D
:1049F00000F003458A9BFA00284600F091F98A49A5
:104A0000087008460078002827DD08460178284607
:104A1000FFF79CFC8549087000BF0846017884A018
:104A2000FDF708FA00BF8148027821462846FCF7C6
:104A300045FB00207C4908707C480078532803D14E
:104A400001207849087008E04FF4807105F1F80002
:104A5000FBF7DFFB002072490870FCF71FFBA0EB9F
:104A6000080042F21071884207D900206C49087092
:104A700000BF74A0FDF7DEF900BFC9E001F0ECF95A
:104A800000BF76A0FDF7D6F900BF774801F030FBF4
:104A9000C4E9000141F22800208273480C3001F083
:104AA0001FFBA06100BF617D70A0FDF7C3F900BFCF
:104AB0000A20207500BF217D70A0FDF7BBF900BF63
:104AC0006420E07500BF71A0FDF7B4F900BF0121BB
:104AD000204601F069FB0120FEF7A4FE00BF6FA095
:104AE000FDF7A8F900BF02204E4900E08CE00870F5
:104AF000FCF7D4FA804601F0ADF900BF6CA0FDF7D9
:104B000099F900BF00BF442221462846FFF71EFF47
:104B1000432221462846FFF719FFFCF7BFFA8046DB
:104B200003204049087000BF284600F0F9F83E49CC
:104B3000087008460078002843DD00BF0846017869
:104B40005EA0FDF777F900BF374801782846FFF7E8
:104B5000FDFB3649087008460078542808D100BF8C
:104B60005CA0FDF767F900BF00202D4908704FE0F9
:104B70002E480078462824D1FD20465D00BF58A06D
:104B8000FDF758F900BF00BF314658A0FDF752F9B4
:104B900000BF0A2E0EDA00270AE04846411C01F049
:104BA000FF0905F1F801085C5549C855781CC7B2E2
:104BB000B742F2DB4AA0FDF73DF90420194908701D
:104BC00026E0FCF76BFAA0EB080041F2883188423E
:104BD00007D900BF4BA0FDF72DF900BF00201049F9
:104BE000087015E0FFE74420454B3246214600900F
:104BF0002846FFF7C1FD432221462846FFF7A6FEBF
:104C000003200849087003E000200549087000BF30
:104C100000BF0348007800287FF4E5AEBDE8F88FB8
:104C2000700000206A0000206B0000206C00002053
:104C3000696E737472756374696F6E203D202564AC
:104C40000D0A000077616974206C6F726120746FC7
:104C50006D656F7574210D0A00000000706F776537
:104C6000726F6E0D0A000000040004086761696E2F
:104C7000203D202564200D0A00000000617672614D
:104C80006765203D202564200D0A00006261747470
:104C900065727920203D200D0A00000074656D705A
:104CA00065726174757265203D200D0A0000000078
:104CB000706F7765726F66660D0A000072656365D6
:104CC000697665446174616C656E203D2025640DD4
:104CD0000A000000696E7374203D3D20540A0000F4
:104CE000696E7374203D3D20460A0000746F744C59
:104CF0006F7365506B674E756D2025640D0A00005B
:104D0000E07500206C6F726120656E746572206DB5
:104D100061696E5F7374617465203D20320A000022
:104D200070B50446002594F8E80068B9D4F8F80195
:104D3000FCF794FC0546002D06DD2A4604F1F80137
:104D4000D4F8F801FCF7C4FE284670BD00B587B062
:104D500041F20E0001F03AF9002001904FF4827008
:104D600000900020029005904FF4007003903020D6
:104D70000690002004906946034801F0A4FE024812
:104D800001F08EFE07B000BD0038004001F036FF94
:104D9000FFF70CF8FFF702F9012200211E2001F0B5
:104DA00007F8022200211C2001F002F80122002154
:104DB0002C2000F0FDFF1FA0FDF73CF800BF0120F4
:104DC00001F072F8044621461CA0FDF733F800BF3D
:104DD00002F029FA1E4A1F4B1F4802F07FFD41F2E4
:104DE0000E411D48001F02F02BFE00BF1A4801F0C3
:104DF0007FF9044622460B4618A0FDF71BF800BFBA
:104E0000FEF760FAFEF724FA01F026F811E0FCF74D
:104E100045F917490860FEF7A9FA50B9FCF73EF9C1
:104E200013490860FCF73AF911490968401A114919
:104E30000860ECE768656C6C6F0D0A007379737439
:104E4000656D20636C6F636B3A2025640D0A00006A
:104E500091B015E30EABEA8A0400040873656E7323
:104E60006F7249443A20256C6C750D0A00000000F1
:104E700008000020240000201CB540F6034001F08B
:104E8000A5F841F2120001F0A1F84FF48072072159
:104E90002148FFF74FF8022000210B460246CDE9DA
:104EA0000010C1011C48FFF76CF94FF40072072194
:104EB0001948FFF73FF8022000210B460246CDE9D2
:104EC000001001021448FFF75CF94FF41651134823
:104ED00002F052FB0021114802F0F8FC00210F48BB
:104EE00002F0E4FC00210D4802F0D0FC04210B4844
:104EF00002F0D4FC0821094802F0E0FC074802F067
:104F00005BFC00221146272000F052FF04490348B1
:104F100002F099FC1CBD0000000C0240004800405B
:104F20002000001070B504460D4613A12046FBF783
:104F3000BBF915A12046FBF777F92046FBF792F95C
:104F40001549088009886018FEF7DEFE12480088BF
:104F50001530114908802A20098860543B210E48E9
:104F60000088401C21540C480088801C0A49088095
:104F700008460088288070BD45544D313030536557
:104F80006E736F723B000000636865636B5F6465FE
:104F90006275673B00000000300100200148007886
:104FA000704700002F01002070B505460C460FA188
:104FB0002846FBF779F911A12846FBF735F9284671
:104FC000FBF750F9208021884819FEF79DFE2088C4
:104FD000153020802B20218868543B212088401CDC
:104FE00029542088801C208070BD000045544D311C
:104FF000303053656E736F723B00000068656172FC
:1050000074626561743B00000148007870470000DD
:105010003201002001480078704700003301002071
:105020002DE9F04780460C4600250027B8F1090F0E
:105030007ED2DFE808F00512FDFCFBDAFA7DF9000C
:1050400000BFF8A0FCF7F6FE00BFFE48007802287B
:1050500002D1012000F0D4FD95E3FBA1FE48FBF74F
:1050600023F9FEA1FC48FBF7DFF8FB48FBF7FAF851
:10507000FE490880F849FD4A12888818FEF744FE68
:10508000FA4800881530F9490880A078F249F74AB3
:1050900012888854E178F04AF4480088401C115482
:1050A0002179F2480088801C11543B21EF48008888
:1050B000C01C1154ED480088001DEC490880A01C5C
:1050C00000F0F4FD08B10B2000E00A20E249E74AB5
:1050D000128888543B21E04AE4480088401C11545F
:1050E000E2480088801CE1490880A07830386421BB
:1050F00010FB01F1E07830380A2212FB0011207910
:105100003038084485B200BF3946D9A0FCF792FE7A
:1051100000BF6179681EDD4A02EBC0008170A17991
:10512000681E02EBC000C17000BF2946D8A000E095
:1051300028E3FCF77FFE00BF00BF6179D8A0FCF731
:1051400079FE00BF00BFA179D8A0FCF773FE00BFB5
:10515000681ECE4901EBC0008178681E400047F808
:105160002010681EC94901EBC000C178681E07EB1A
:10517000C000416000BF681E400057F82010CEA05C
:10518000FCF758FE00BF00BF681E07EBC000416877
:10519000CCA0FCF74FFE00BF002621E0700017F8FE
:1051A0002000BA4901EBC601887007EBC600007900
:1051B000B64901EBC601C87000BFB44800EBC60099
:1051C0008178B7A0FCF736FE00BF00BFAF4800EB08
:1051D000C600C178B5A0FCF72DFE00BF701CC6B29A
:1051E000032EDBDB00F040FBCDE2A41C60782178CD
:1051F000182212FB0100B6498860A078C860002020
:1052000008614AF6AA2008600020486000BF0846EE
:105210000369C2688168AFA0FCF70CFE00BF00BF45
:10522000AB480168B3A004E02AE228E2D6E1D0E16D
:105230005CE0FCF7FFFD00BF00BFA5488168B3A09C
:10524000FCF7F8FD00BF00BFA148C168B5A0FCF79E
:10525000F1FD00BF00BF9E480169B8A0FCF7EAFD60
:1052600000BF79A17C48FBF71FF8BAA17A48FAF78A
:10527000DBFF7948FAF7F6FF7C49088076497B4ADC
:1052800012888818FEF740FD784800881530774965
:10529000088030207049754A1288885430216E4A3F
:1052A00072480088401C1154312170480088801CCD
:1052B00011543B216D480088C01C11546B48008874
:1052C000001D6A4908800D201146684A12888854DA
:1052D0003B21614A65480088401C1154634800889E
:1052E000801C6249088000F0BFFA4CE2A078303898
:1052F000642110FB01F1E07830380A2212FB001122
:10530000207930380844401E85B24FA15248FAF740
:10531000CBFF94A15048FAF787FF4F48FAF7A2FF56
:10532000524908804C49514A12888818FEF7ECFC13
:105330004E48008815304D490880A07846494B4AB0
:1053400012888854E178444A48480088401C115427
:10535000217946480088801C11543B223E4943482D
:105360000088C01C0A5441480088001D3F4908803D
:10537000032D06DD142038493C4A12888854002544
:1053800004E015203449394A128888543B21324AB6
:1053900036480088401C115434480088801C33492A
:1053A00008804FF00009CA46680019F820A010468E
:1053B000098800F801A03B212C480088401C1154AA
:1053C0006C4800EBC500C17828480088801C115447
:1053D0003B2126480088C01C1154664800EBC500DC
:1053E000417822480088001D11543B211F48008845
:1053F000401D11545F4800EBC50001791B4800882F
:10540000801D11543B2119480088C01D1154594872
:1054100000EBC500417915480088083011543B2144
:105420001248A9E073656E6420746F20736572760C
:105430006572204F4B20616E64206E6F20636D6437
:10544000210D0A002F01002045544D3130305365A5
:105450006E736F723B000000A8A300207365745F39
:10546000706172616D735F61636B3B00300100209E
:1054700070726F62654761696E417667206164642E
:1054800072203A2025700D0A000000005200002012
:1054900070726F62656E756D3A2025640D0A0000AA
:1054A0004741494E3A2025640D0A00004156473ACB
:1054B0002025640D0A0000004741494E313A20255D
:1054C000640D0A00415647313A2025640D0A000058
:1054D000A400002073616D706C652074696D652097
:1054E0003A20253032643A253032643A253032642D
:1054F0000D0A00002073616D706C655F74696D65E5
:105500002E666C61672025780D0A00002073616D9E
:10551000706C655F74696D652E686F7572202564A7
:105520000D0A00002073616D706C655F74696D65B4
:105530002E6D696E202025640D0A00002073616DB8
:10554000706C655F74696D652E73656320202564DA
:105550000D0A00007365745F74696D655F61636B4C
:105560003B0000006765745F706172616D735F611D
:10557000636B3B00C07500200088093011548448DB
:1055800000EBC500C08802128249834800880A30B7
:105590000A547F4800EBC50081797E4A7E48008826
:1055A0000B3011543B217C4800880C3011547A4850
:1055B00000880D30784908803B2177480088C01C5E
:1055C000115475480088001D7349088000F04CF99B
:1055D000D9E0A178E01CFCF7A5FAD4E0AFF298116D
:1055E0006C48FAF761FE6DA16A48FAF71DFE69483A
:1055F000FAF738FE684908806649674A12888818B1
:10560000FEF782FB64480088153063490880A07863
:10561000A8B129215F48604A12888154012062495B
:105620000870002000F0ECFA002001F003FA0020DE
:105630005E49087000BF5EA0FCF7FCFB0CE0332065
:105640005449554A1288885402205749087000BFAF
:105650005DA0FCF7EFFB00BF3B214E4A4E4800889F
:10566000401C11544C480088801C4B49088000F0B5
:10567000FBF8A07810B9012000F0C2FA83E082E0C4
:105680004FF0AA30564909680860E0785449096823
:10569000486021795248006881606179504800680B
:1056A000C160A1794E4800680161E07900024C496F
:1056B000096848614A4800684069217A08434849B6
:1056C0000968486100BFE17846A0FCF7B3FB00BF62
:1056D00000BF217943A0FCF7ADFB00BF00BF61799B
:1056E00040A0FCF7A7FB00BF00BFA1793DA0FCF7DD
:1056F000A1FB00BF00BFE1793CA0FCF79BFB00BF12
:1057000000BF217A39A0FCF795FB00BFAFF2C8219A
:105710002048FAF7C9FD39A11E48FAF785FD1D4852
:10572000FAF7A0FD1C4908801A491B4A12888818FC
:10573000FEF7EAFA18480088153017490880512109
:105740001448154A12888154002000F059FA0020AC
:1057500001F070F900BF2DA0FCF76CFB00BF3B21EE
:105760000C4A0D480088401C11540B480088801CCE
:10577000094908801A4801682A4802F03FF900F0F8
:1057800073F800E000BF00BF0120BDE8F087000013
:10579000C0750020A8A30020300100206465627558
:1057A000675F61636B3B00002F0100202A0100202E
:1057B0006E6574776F726B207374617274206465A8
:1057C000627567210D0A00006E6574776F726B2039
:1057D00073746F70206465627567210D0A000000A4
:1057E0004801002069703A25640D0A0074656D70E7
:1057F0005F506F72743A25640D0A00007570646121
:1058000074655F69705F61636B3B00006368616E24
:10581000676520697020616E642070726F74210D5D
:105820000A0000000000040870B504460D46002080
:1058300000F0E6F9012000F0B5FA207838B1012037
:1058400000F02EFA60782146FFF7EAFB70BD0020D9
:1058500000F026FA0348007808B900F0A3F9012007
:10586000F4E700003401002010B5002000F0C8F972
:1058700008480188084800F0B1F90020074908707D
:1058800007480078022802D1012000F009FA01201F
:1058900010BD000030010020A8A30020340100202A
:1058A0002F0100202DE9FF5F8346984600254FF029
:1058B000420901264FF4D277AA46002003900290B5
:1058C0000190009001208A4908708A4C002000F065
:1058D00097F9002000F0E4F94FEA4801019810F828
:1058E00021000090009800F0A5FCBBF1000F78D1DA
:1058F00000F0B2FA0821804800F056FC7FA1204653
:10590000FAF7D2FC81A104F10D00FAF7CDFC04F105
:105910001400FEF7F9F97F48008890FBF7F07D4905
:10592000098891FBF7F207FB121109B1012100E090
:1059300000210844784908700846007884F8290056
:105940003B212A2001552C200155FEF7EDFA03904A
:105950000398F0B9FEF7E4FA7049086000BF084602
:1059600001686FA0FCF766FA00BF6A4801886B48BF
:10597000006800F072FC70480078022801D13D20D8
:1059800000E01F2084F82D0000BF6CA0FCF752FA45
:1059900000BF424620460099FEF7C0F900F05AFACF
:1059A0003B212E2001555D4800680290204600F002
:1059B000B9FB00BF67A0FCF73DFA00BF42222146B9
:1059C0006948FAF70DFC00BF68A0FCF733FA00BF86
:1059D000039800283DD058480078022802D13C2086
:1059E00001E036E01E2084F82D0000BF62A0FCF725
:1059F00021FA00BF012004F8290FA0700020E074F4
:105A0000293C00213D2001556248A0F800903B2030
:105A100060490988605400215E480088401C215478
:105A20005C480088801C5B490880204600F07AFBB7
:105A300058480188204600F0D1F800202C49087011
:105A4000422221464848FAF7CBFB002004B0BDE8CB
:105A5000F09F47E0FFF7DEFA08B10120F6E72D4896
:105A60000088A0EB0A00B84201DD3D4604E0294869
:105A70000088A0EB0A0085B20AEB05001FFA80FA45
:105A8000012E12D125480068029042223649204654
:105A9000FAF7A6FB6A0004F142000299FAF7A0FBAC
:105AA00009EB45003B4908800AE06A0004F1330035
:105AB0000299FAF795FB09EB45000F383549088044
:105AC000029800EB4500029084F82B60701CC6B26F
:105AD00000BF31A0FCF7AEF900BF2E480188204678
