:020000040800F2
:1000000090970020BD010008591000085110000809
:1000100055100008CD0F000805170008000000006B
:100020000000000000000000000000005D1000085B
:10003000D10F0008000000005B1000082516000822
:10004000D7010008D7010008D7010008D701000830
:10005000D7010008D7010008D7010008D701000820
:10006000D7010008D7010008D7010008D701000810
:10007000D7010008D7010008D7010008D701000800
:10008000D7010008D7010008D7010008D7010008F0
:10009000D7010008D7010008D7010008D7010008E0
:1000A000D7010008D7010008D7010008D7010008D0
:1000B000A5160008D7010008C5160008D7010008DA
:1000C000D7010008D7010008D7010008D7010008B0
:1000D000D7010008D7010008D7010008D7010008A0
:1000E000D7010008D7010008D7010008D701000890
:1000F000D7010008D7010008D7010008D701000880
:10010000D7010008D7010008D7010008D70100086F
:10011000D7010008D7010008D7010008D70100085F
:10012000D7010008D7010008D7010008D70100084F
:10013000D7010008D7010008D7010008D70100083F
:10014000D7010008D7010008D7010008D70100082F
:10015000D7010008D7010008D7010008D70100081F
:10016000D7010008D7010008D7010008D70100080F
:10017000D7010008D7010008D701000800000000DF
:10018000D7010008D7010008D7010008D7010008EF
:10019000D7010008D7010008D7010008D7010008DF
:1001A000D7010008D7010008DFF80CD000F08AFC66
:1001B0000048004715320008909700200648804705
:1001C00006480047FEE7FEE7FEE7FEE7FEE7FEE73C
:1001D000FEE7FEE7FEE7FEE72D160008A90100088E
:1001E00040EA01039B0703D009E008C9121F08C0B9
:1001F000042AFAD203E011F8013B00F8013B521E39
:10020000F9D27047D2B201E000F8012B491EFBD2AF
:1002100070470022F6E710B513460A460446194611
:10022000FFF7F0FF204610BD421E12F8013F002BE1
:10023000FBD111F8013B02F8013B002BF9D17047CB
:1002400030B505462A460B4612F8010B13F8014B50
:1002500008B1A042F8D01CB1002802D06D1CF1E713
:10026000284630BD421C10F8011B0029FBD1801A22
:10027000704710B5002200E0521C835C8C5CA342E6
:1002800001D1002BF8D1D8B2E1B2401A10BD30B57F
:1002900004460020034600E05B1C934203D2E05C6E
:1002A000CD5C401BF8D030BD034611F8012B00F89F
:1002B000012B002AF9D11846704700000FB400B591
:1002C0008DB010A909900B9000914FF0FF300A906B
:1002D00000200C9005480690054807906A4609A83A
:1002E0000F9900F015FB0DB05DF814FB2D09000807
:1002F0004B0900082DE9FF5F1D464FF0FF3BD5E994
:10030000014691465F464FF00008A9697F1C01989D
:100310008847296A824688470028F6D1BAF1FF3F0C
:100320000CD024F4C064002E19DD600614D5BAF197
:100330002B0F09D0BAF12D0F0ED103E0584604B0AF
:10034000BDE8F09F44F48064A9697F1C0198884748
:10035000761E8246002E02DDBAF1300F03D0B9F1CD
:10036000000F26D032E0A969761E44F400747F1C89
:10037000019888478246002E05DDBAF1780F06D035
:10038000BAF1580F03D0B9F1000F10D01EE0B9F147
:10039000000F02D0B9F1100F18D1A969761E24F40C
:1003A00000747F1C019888478246102002E00820D4
:1003B00000E00A20814609E008FB0908A969761EC9
:1003C00044F400747F1C019888478246002E05DDA6
:1003D0004946504600F088FA0028EDDAE9690198AC
:1003E0008847A00502D46FF00100A8E7E00725D1F7
:1003F000600613D5600502D5C8F1000000E0404654
:1004000029680A1D2A600968220501D5087015E0CF
:10041000220701D5088011E008600FE02868011D5F
:1004200029600068210502D580F8008006E02107D8
:1004300002D5A0F8008001E0C0F8008038467EE7D1
:100440002DE9FE4F804681EA0300C00F0C46009064
:1004500021F0004123F00045B8EB0200A94105D28C
:100460004046214690461C460B46024623F000407B
:10047000104347D0270DC7F30A00C3F30A51029077
:10048000401A019040286BDAC3F3130040F4801B3C
:100490000098924620B10023D2EB030A63EB0B0BCA
:1004A00001985946C0F14002504600F0ECF906466A
:1004B0000D4650465946019A00F004FA10EB080028
:1004C0006141002487EA115284EAE7731A4340D05D
:1004D000009A62B3019A012A4FEA075215DC001B09
:1004E00061EB02014FF0004202EA0752CDE90042FF
:1004F000001C41F5801132462B4600F07DFA03B016
:10050000BDE8F08F40462146F9E7001B61EB020190
:10051000001C41F5801300185B412018A2F500175C
:1005200047EB030140EAD570B6196D4111E06D0843
:100530004FEA360645EAC0754FEA0752001B61EBE9
:100540000201001C41F5801149084FEA30000019F2
:10055000514132462B4603B0BDE8F04F00F03DBAA2
:100560000098012240000023D0EB020263EBE0730D
:10057000009821464FEAE074B8EB000061EB0401FB
:10058000E9E783F000435BE781F0004158E72DE99C
:10059000FE4F81EA030404F0004421F0004100947E
:1005A0004FF0000B23F0004350EA01045ED052EA02
:1005B00003045BD0C3F30A54C1F30A552C44A4F2DC
:1005C000F3340194A0FB0254C1F3130141F48011F0
:1005D000C3F3130343F4801301FB024400FB034EF7
:1005E000840A970A44EA815447EA8357A4FB0768C0
:1005F00002958D0A05FB07854FEA932C04FB0C54EA
:100600002705029D4FEA065847EA1637B5EB08055D
:100610006EEB070C870E920E47EA811742EA8312AF
:10062000A7FB0201B6EB0B0164EB00042B0D43EAC0
:100630000C335E1844EB1C50DA465146E7FB0201CE
:10064000C5F313044FEA0B3343EA14534FEA043261
:10065000019C43EA0603A4F10C040294009CCDE93A
:1006600000B400F0C9F903B0BDE8F08F00200146E6
:10067000F9E72DE9F04D81EA030404F0004B21F085
:10068000004514464FF0000A23F0004150EA0502ED
:1006900020D054EA01021DD0C5F30A570246C5F323
:1006A0001303C1F31300C1F30A5640F4801543F459
:1006B0008013A7EB0608101BD64608F2FD3873EB33
:1006C000050002D308F1010801E092185B41B8F17E
:1006D000000F03DA00200146BDE8F08D00204FF442
:1006E0008011064684460EE0171B73EB050705D301
:1006F000121B63EB050306434CEA010C49084FEA61
:10070000300092185B4150EA0107EDD152EA030034
:1007100012D082EA040083EA0501084305D0101BC9
:10072000AB4106D20122002306E000224FF0004335
:1007300002E06FF0010253101AEB06004CEB085177
:1007400010EB0A0041EB0B01BDE8F04D00F045B99C
:100750000EB540F2334102910021CDE900110A4665
:100760000B4600F049F903B000BD00F0004230F044
:1007700000400AD0C10D01F56071C0F3160042EAD5
:100780000151C208400711437047002001467047DD
:1007900030B5041E71F1000404DB4FF00044404208
:1007A00064EB0101141E73F1000405DB1C464FF0DD
:1007B0000043524263EB0403994208BF904230BDAC
:1007C00001F0004330B421F0004150EA010206D0AC
:1007D0000A0DA2F56072C1F31301002A02DC30BCDD
:1007E00000207047440F44EAC104C100E01830BC47
:1007F00000EBC25000F0BAB830B50B4601460020FD
:100800002022012409E021FA02F59D4205D303FAD2
:1008100002F5491B04FA02F52844151EA2F1010253
:10082000F1DC30BD2DE9F05F0546002092469B4685
:1008300088460646814640241BE0284641464746F6
:10084000224600F02FF853465A46C01A914110D361
:1008500011461846224600F016F82D1A67EB0108DB
:100860004F4622460120002100F00DF817EB000949
:100870004E41201EA4F10104DFDC484631462A46E1
:100880004346BDE8F09F202A04DB203A00FA02F13B
:10089000002070479140C2F1200320FA03F319436E
:1008A00090407047202A04DB203A21FA02F0002110
:1008B000704721FA02F3D040C2F120029140084370
:1008C00019467047202A06DBCB17203A41FA02F07E
:1008D00043EAE07306E041FA02F3D040C2F120029D
:1008E00091400843194670473A2800D2303820F02A
:1008F0002002412A01D3A2F13700884201D34FF0F0
:10090000FF30704702681144137801601846704741
:10091000D1600449516104491162002111611146FD
:1009200000F0E8B805090008E90A0008426842B189
:10093000016811F8013B23B1521EC0E900121846AC
:1009400070470121C160881E704742685AB1C36870
:10095000016843B983688B4205D0491E521CC0E927
:100960000012002070474FF0FF3070470029A8BFE9
:100970007047401C490008BF20F00100704710B4C8
:10098000B0FA80FC00FA0CF050EA010404BF10BC7D
:10099000704749B1CCF1200421FA04F411FA0CF1AA
:1009A00018BF012121430843A3EB0C01CB1D4FEAE3
:1009B00000614FEA102042BF002010BC704700EBDE
:1009C000C35010440029A4BF10BC7047401C49000C
:1009D00008BF20F0010010BC704710B5141E73F161
:1009E000000408DA401C41F1000192185B411A43EF
:1009F00001D120F0010010BD2DE9F04D92469B463B
:100A000011B1B1FA81F202E0B0FA80F220329046E0
:100A1000FFF739FF04460F4640EA0A0041EA0B019E
:100A200053465A46084313D0114653EA010019D0E1
:100A3000C8F140025046FFF735FF05460E465046C6
:100A400059464246FFF71FFF084305D0012004E046
:100A500020463946BDE8F08D0020054346EAE076A1
:100A60002C4337430A986305E40AA0EB08000022F0
:100A7000FD0A44EA47540A3002D500200146E9E75E
:100A8000010510196941DDE9084500196941BDE812
:100A9000F04DA2E7C1F30A52C1F3130140F2FF3354
:100AA00041F480119A4202DA00200146704740F278
:100AB00033439A42A2F2334202DC5242FFF7F2BEC3
:100AC000FFF7E1BE064C074D06E0E06840F0010389
:100AD00094E8070098471034AC42F6D3FFF768FB60
:100AE000805D0008A05D0008C0B24FF4F05100F036
:100AF00097B900002DE9F34F8BB04FF0000801F1DA
:100B00000C000C464FF0010B46460DF1080A01900F
:100B10006269012101989047051E2DD0252D2CD00A
:100B2000216A8847C0B16269012101989047216A12
:100B300088470028F7D1411E62690198904700E07C
:100B4000761CA1690B988847216A88470028F7D14D
:100B5000E1690B988847DBE7A1690B98884707464E
:100B6000A84201D1761CD3E7E1690B9888477F1C26
:100B700002D1B8F1000F6FD046E1002762693D460F
:100B80003946019890472A2804D1626901210198C9
:100B900090470125DFF8849262690121019890470E
:100BA000A0F130010A290AD24F45E5DC07EB8701A5
:100BB00000EB4107303FDFD445F01005ECE7E906D4
:100BC00001D46FF000476C280AD04C2814D0682854
:100BD00015D06A280DD074281CD07A281AD01DE0B0
:100BE00062690121019890476C2802D045F0040504
:100BF00014E045F002050DE045F020050AE06269C9
:100C0000012101989047682802D045F0080505E0C9
:100C100045F400656269012101989047C4E90157D4
:100C200065283DD019DC58287AD00CDC452837D00F
:100C300004DC252826D0412831D131E046282FD0A8
:100C400047282CD12CE05B2877D0612828D0632856
:100C50007CD0642823D15AE0D0E06F2848D008DC4B
:100C600066281DD067281BD0692821D06E2816D190
:100C700027E0702845D0732868D0752847D0782899
:100C80000DD14DE0A1690B988847054625283FF412
:100C900069AFE1690B9888476D1C3FF46AAFB3E018
:100CA00023466A466FF001000B99AFF300809EE087
:100CB00045F040006060A80723464FF0000236D49C
:100CC0003EE0E8077FF447AF2068011D216000681F
:100CD000290501D506701BE7290701D5068017E70E
:100CE000A90703D5F117C0E9006111E706600FE716
:100CF00045F040006060A80723464FF0080216D474
:100D00001EE040F60E0125EA0100606016E045F0A5
:100D100040006060A80723464FF00A0207D40FE0A6
:100D200045F040006060A80708D5234610226FF008
:100D300001000B99AFF3008059E007E02346102231
:100D40006FF001000B99FFF7D5FA50E04FF0000962
:100D50004F464B46632802D05B2806D040E0E806A9
:100D600001D40120A06001273AE0626901210198C5
:100D700090475E2805D14FF0010962694946019804
:100D80009047216939B900210A46534643F821208A
:100D9000491C0829FADBB0B3216969B9C11700EB16
:100DA000D16253110AEB830122F01F02821A012043
:100DB0000B68904003430B606269012101989047E2
:100DC0005D28E8D1B9F1000F09D00020514651F853
:100DD0002020D24341F82020401C0828F7DB02AB3A
:100DE000224600976FF001000B99AFF300800028B6
:100DF0000CDA401C08D1BBF1000F05D04FF0FF30DA
:100E00000DB0BDE8F08FFFE74046F9E7E90701D1F3
:100E100008F1010806444FF0000B79E6CCCCCC0C6D
:100E20007F2801D9002208E0064A02EB5002C007E1
:100E3000127800D1120902F00F0201209040084000
:100E400070470000FA5C000870B52DED048B9FED33
:100E5000470AB0EE408A9FED450AF0EE408A002432
:100E60000A250AE00A21424801F0FEF8064601F090
:100E7000BBFD30EE080AB0EE408A281EA5F1010144
:100E8000CDB2EFDCB2EE040AC8EE000AF0EE608AE2
:100E9000B0EE080A28EE800A364880ED000A4FF4CA
:100EA0000041354802F0B0F848B332480068FFF717
:100EB0005CFC41EC190B9FED310B53EC102BFFF751
:100EC00067FC07D240F6B83000F01EFC64202D49C4
:100ED000087046E02C484468641E204600F014FC6C
:100EE00000BF214629A000F02DFC00BF6420604314
:100EF00040F6B831B0FBF1F02249087031E02248E9
:100F0000406828490860084690ED000ADFED260A8F
:100F100020EE200ADFED250A80EE201ABCEEC10A81
:100F200010EE100A1749087000BF12480068FFF75A
:100F30001CFC41EC190B53EC192B1DA000F002FC1A
:100F400000BF0C480068FFF710FC41EC190B9FED47
:100F50000B0B53EC102BFFF71BFC02D2642009494A
:100F6000087008480078BDEC048B70BD00000000DC
:100F7000002001404C000020001002400000000052
:100F8000000016404800002000000308636F6C6CEE
:100F9000656374202074696D6572202025640D0AD4
:100FA00020000000500000200000C84200A08C4536
:100FB00063757272656E745F766F6C7461676520BD
:100FC000697320256620760D0A00000000BFFEE749
:100FD000704700002DE9F04180460E461746444612
:100FE0002046FFF73FF907EB4701884202D2002075
:100FF000BDE8F081002517E020783038642110FB2F
:1010000001F16078303800EB800001EB4001A078FE
:1010100030380844705500BF715D05A000F092FBA8
:1010200000BF681CC5B2E41CBD42E5DB0120DFE760
:101030005265616479206368616E6E656C3A2564FF
:101040000D0A0000014800687047000008000020F9
:1010500000BFFEE700BFFEE770477047704710B55E
:101060000446204600F0C0F9A1224021204600F0AD
:10107000ECF880224121204600F0E7F8FA22112105
:10108000204600F0E2F8FF221221204600F0DDF8B1
:101090000F220121204600F0D8F810BD70B504469B
:1010A0000D4616462572204600F09EF984224D21F9
:1010B000204600F0CAF8FF222421204600F0C5F89F
:1010C00001224021204600F0C0F83F221121204695
:1010D00000F0BBF8204600F0E5F82A462221204621
:1010E00000F0B3F80E21204600F09AF81549087078
:1010F000084602780D21204600F0A7F88D22012134
:10110000204600F0A2F8002084F80A0119E0182116
:10111000204600F085F800F00400042803D10320E5
:101120006072012070BD701E061E07D1206800F09D
:1011300074F9204600F058F90020F3E7012000F090
:1011400066F9E4E7A50000202DE9F04104460D46CC
:1011500017462572204600F047F987224D21204688
:1011600000F073F800222421204600F06EF841229E
:101170004021204600F069F8204600F093F8F7225D
:101180001121204600F061F82A462221204600F075
:101190005CF80E21204600F043F8804642460D21BF
:1011A000204600F052F816E02221204600F038F8E0
:1011B0000646AE4204D1022060720120BDE8F081F3
:1011C000781E071E07D1206800F027F9204600F09E
:1011D0000BF90020F2E7E7E72DE9F04104460F465E
:1011E00090461E46012E01DCBDE8F08100212068FA
:1011F00000F079F947F08001206800F023F900251C
:1012000006E018F80510206800F01CF9681CC5B24B
:10121000B542F6DB0121206800F065F900BFE3E785
:1012200070B504460D460021206800F05CF929469F
:10123000206800F007F9206800F023F90646012134
:10124000206800F050F9304670BD70B504460D4678
:1012500016460021206800F046F945F0800120681C
:1012600000F0F0F83146206800F0ECF80121206829
:1012700000F039F970BD2DE9F04704460D461646D9
:101280001F46DDE90889206800F03CF92571667188
:10129000A77184F8078084F80890204600F0A4F82D
:1012A000BDE8F08710B50446FF2212212046FFF763
:1012B000CCFF10BD2DE9F04706460F4690461C4670
:1012C000DDF82090304600F028F9304600F097F81D
:1012D00001213046FFF7A4FF3E49087007EB4700A5
:1012E0003D494218032306213046FFF775FF3B486E
:1012F00010F8082009213046FFF7A7FF0B221146FE
:101300003046FFF7A2FF23220C213046FFF79DFF56
:101310003348005D06282AD1324810F8090002211E
:1013200001EB0010401CC2B21D213046FFF78DFFBB
:101330002B48005D042101EB0010C01CC2B21E212D
:101340003046FFF782FF31213046FFF769FF05463F
:1013500005F0F80545F005052A4631213046FFF72E
:1013600074FF0C2237213046FFF76FFF15E01D4850
:1013700010F80900022101EB0010C2B21D21304615
:10138000FFF763FF1648005D042101EB0010C01C4D
:10139000C2B21E213046FFF758FFFF221F21304600
:1013A000FFF753FF002220213046FFF74EFF0622B1
:1013B00021213046FFF749FF012241213046FFF746
:1013C00044FF002086F80A01304600F0B0F8BDE87E
:1013D000F0870000A4000020B85C0008E55C00086D
:1013E000E95C0008F05C000838B50446E07900903C
:1013F000A379627921792046FFF75CFF38BD10B5EB
:101400000446882201212046FFF71FFF10BD10B5BA
:101410000446204601F0C2FB10BD10B50446012170
:10142000204600F060F8D4E9001001F096FD01209C
:10143000FFF7EDFFD4E9001001F091FD6420FFF704
:10144000E6FF10BD70B504460D46FFF7FBFD0646EE
:101450002946A06903F03FFC00BF8021A06903F08A
:101460003CFC012805D1FFF7EDFD801BB0F57A7F2C
:10147000F3D300BF0221A06903F02FFC0028F9D0AC
:1014800070BD2DE9F041044600270025FFF7DAFD85
:10149000064600BF0221A06903F01FFC0028F9D016
:1014A0000A21A06903F017FCA06903F010FCC5B283
:1014B00000BF8021A06903F010FC0128F9D0A069C9
:1014C00003F005FCC5B200BF0121A06903F005FCD3
:1014D000012805D1FFF7B6FD801BB0F57A7FF3D365
:1014E0002846BDE8F08170B504460D46012D04D1B3
:1014F000D4E9041001F033FD03E0D4E9041001F055
:101500002CFD70BD10B5044601212046FFF7EBFF0E
:10151000D4E9001001F023FD10BD10B504460822E7
:1015200001212046FFF791FE0020607210BD10B52A
:101530000446092201212046FFF787FE0120607240
:1015400010BD38B505460C46032C01DD002038BD22
:10155000224669462846FFF73DFD28B122466946E6
:10156000002000F003F8F2E70020F0E72DE9F04753
:1015700006460D46904600240027A14633E000BFF2
:10158000295D1FA000F0DEF800BF285D02F01CFD01
:10159000285D401EC3B201220021084602F01EFB56
:1015A000601CC4B203F088F900BF02F0C1FFB7426B
:1015B00000DB07E002F09AFC781CC7B201F092FE53
:1015C0000028F2D000BF15480068401C134908608D
:1015D000B74208DB12480088401C1149088009F115
:1015E000010000F0FF09032C01DA4445C7DBB9F123
:1015F000000F02D00120BDE8F0870020FBE70000CB
:1016000050726F6265206368616E6E656C207374E2
:10161000617274202564200D0A0000000C01002076
:101620000801002010B501F0E5FA10BD10B5194809
:10163000006840F47000174908601748006840F0DF
:1016400001001549086014490831096841F080011A
:10165000114A08321160002000E0401C1428FCD31D
:1016600000200D49083108600B4800680B4908400C
:10167000094908600A48091D0860081F006820F42D
:101680008020091F0860002003490C31086003F026
:10169000C3FB10BD88ED00E000380240FFFFF6FEFE
:1016A0001030002410B50121880703F0E1FF012864
:1016B00006D1800703F072FF0121880703F0D4FFF1
:1016C00010BD000010B50121044803F0D1FF01282E
:1016D00003D10121014803F0C7FF10BD00080040FD
:1016E000024612B909B90020704702480260416001
:1016F0000120F9E76C0000200020014908807047B4
:101700006800002000BFFEE710B504460C4801F059
:101710007DFA01F0F9FA4FF0AA31094801F006FB11
:10172000D32001F081FA21460548001D01F0FEFAA0
:10173000D32001F079FA01F07DFA012010BD0000FC
:10174000000003080FB4054B10B503A9044A029822
:1017500000F0EEF810BC5DF814FB0000792D0008D5
:10176000180100200FB4084B10B504A902AA039871
:1017700000F0DEF8044602A9002000F070FC2046CC
:1017800010BC5DF814FB00005F20000802E008C8F0
:10179000121F08C1002AFAD170477047002001E0EB
:1017A00001C1121F002AFBD1704700002DE9FF5F25
:1017B00082B00021DDE90430020DDDF840B00343C2
:1017C00018D044F61050A2F2FF324243151411987B
:1017D00001281FD0A5EB0B00401C5FEA000A4FF068
:1017E00000064E4FDFF83891B046504615D5CAF185
:1017F000000413E0119801244AA3012801D16FEAE3
:101800000B010298119AC0E90031C0E9024206B00A
:10181000BDE8F09FCBF10000DFE704460021404A1D
:10182000491842EB0450CDE9001012E0E00707D060
:1018300032463B4640464946FEF7A9FE8046894669
:1018400032463B4610461946FEF7A1FE06460F46B5
:101850006410002CEAD1DDE90401DDE90023BAF1CE
:10186000000F06DAFEF793FE42464B46FEF78FFE68
:1018700005E0FEF7FEFE42464B46FEF7FAFE044642
:101880000E460022284BFEF783FF03D84FF0FF30AF
:10189000014607E00022254B20463146FEF7D0FDE9
:1018A000FFF7F8F8102409E0002C0ADB0A220023D5
:1018B000FEF7B8FF039B30321A55641E50EA01024E
:1018C000F2D1641C039AC4F111031444119A012A41
:1018D00003D0012208430DD10AE0084304D00020C0
:1018E0004FF0110B119072E7A3EB0B056D1E0DE08D
:1018F0005B4504DD4FF0000205F1010504E003DA69
:101900004FF00002A5F10105002AECD002981199D0
:10191000C0E90231C0E9004579E700000000144049
:101920000000F03F300000000000F0430000E03F06
:101930002DE9FF4F95B09B468946064600250FE2EC
:10194000252877D100242746F84A0121059400E094
:10195000044316F8013F203B01FA03F01042F7D18F
:1019600030782A2811D06FF02F033078A0F13002A0
:10197000092A16D8059A44F0020402EB820203EB0E
:1019800042021044761C0590EFE759F8042B0592AB
:10199000002A03DA504244F40054059044F0020453
:1019A000761C30782E2816D116F8010F44F0040466
:1019B0002A280DD06FF02F023078A0F13003092BC8
:1019C00009D807EB870302EB4303C718761CF3E73C
:1019D00059F8047B761C30786C280FD006DC4C2834
:1019E00017D068280DD06A2814D104E0742810D0CC
:1019F0007A280FD10DE044F400140AE044F4801476
:101A000001E044F440147278824202D104F580145B
:101A1000761C761C307866280BD013DC582877D0DB
:101A200009DC002875D04528F6D04628F4D0472890
:101A30001AD19DE118E0632835D0642879D0652853
:101A400012D195E1702873D008DC6728F1D069289D
:101A50006FD06E280DD06F2806D1B5E073282CD03A
:101A6000752875D0782874D05A46179990476D1C00
:101A700075E1C4F30250022809D003280DD0D9F82B
:101A8000001004280DD00D6009F1040967E1D9F8B0
:101A90000010EA17C1E90052F6E7D9F800100D80EE
:101AA000F2E70D70F0E719F8041B8DF80010002024
:101AB0008DF80100EA46012003E059F804AB4FF02D
:101AC000FF3061074FF0000102D40DE008F1010181
:101AD0008846B9420FDA8045F8DB1AF80810002969
:101AE000F4D108E008F1010188468142FADB1AF8D6
:101AF00008100029F6D105985B46A0EB080721469F
:101B00003846179A00F094FA284400EB080507E0DD
:101B10004DE029E10DE01AF8010B5A46179990475C
:101B2000B8F10108F7D25B4621463846179A13E10F
:101B300042E00A220092C4F302524FF0000A022A45
:101B400008D059F804CB032A4FEAEC710AD00DE013
:101B500029E02AE009F1070121F00702F2E802C1B9
:101B6000914609E00FFA8CFC4FEAEC71042A03D18C
:101B70004FFA8CFC4FEAEC71002907DA0A46002183
:101B8000DCF1000C61EB02012D2202E0220504D5FC
:101B90002B228DF80420012203E0E20701D020224D
:101BA000F7E7904659E00A2102E010220DE01021EB
:101BB0004FF0000A00910BE010224FF0000A44F0B1
:101BC00004040827009203E008224FF0000A009264
:101BD000C4F30252022A05D059F804CB0021032A8B
:101BE00008D009E009F1070121F00702F2E802C17B
:101BF000914605E01FFA8CFC042A01D10CF0FF0C81
:101C00004FF00008220728D5702806D0009B83F0EB
:101C1000100353EA0A0305D00EE040228DF8042099
:101C2000012208E05CEA010206D030228DF804208F
:101C30008DF8050002229046009B83F0080353EACA
:101C40000A030AD15CEA010201D1620705D53022FC
:101C50008DF804204FF001087F1E582804D034A0CE
:101C600003900EA802900DE036A0F9E753466046B7
:101C7000009AFEF7D7FD84460398825C0298401EC6
:101C8000029002705CEA0100F0D1029806A9081ADD
:101C900000F1200A600702D524F4803400E0012717
:101CA000574502DDA7EB0A0000E0002000EB0A0127
:101CB000009005984144401A0590E00306D45B4625
:101CC0002146179A059800F0B3F90544002706E06D
:101CD00001A85A46C05D179990476D1C7F1C474567
:101CE000F6DBE0030CD55B462146179A059800F019
:101CF0009FF9054404E030205A46179990476D1C1F
:101D00000099481E00900029F5DC08E0029802992D
:101D10005A460078491C0291179990476D1CBAF1F8
:101D20000001AAF1010AF1DC65E1000009280100C7
:101D30003031323334353637383961626364656641
:101D40000000000030313233343536373839414203
:101D5000434445460000000000F058F90544761C55
:101D6000307800287FF4ECAD19B02846BDE8F08F3C
:101D7000620700D4062709F1070222F0070CFCE8ED
:101D80000223E14603F000485FEA080C02D00FF29C
:101D9000702C0DE05FEA045C02D50FF2682C07E0BE
:101DA0005FEAC47C02D00FF2602C01E0AFF2700C4D
:101DB0004FF0FF3823F00043CDF850C065280CD019
:101DC00006DC452809D046281DD047283DD13DE0F6
:101DD000662818D067287ED138E00021112F01DB5A
:101DE000112000E0781CCDE9000106A90EA8FFF73C
:101DF000DDFCDDE90F010E9A03910021009207F14D
:101E0000010A04914DE04FF000400097CDE9011028
:101E100006A90EA8FFF7CAFCDDE90F0203920E9B8C
:101E200011990022DDF80CA00093049211B9791CDD
:101E300000EB010AB7EB0A0004D4C0F1FF3007F150
:101E4000010A0490AAEB0700019044E0012F00DA98
:101E500001270021112F01DD112000E03846CDE9D6
:101E6000000106A90EA8FFF7A1FCDDE90F010E9AFB
:101E70000391002104910092BA4621070CD40399E2
:101E8000514500DA8A46BAF1010F05DD009AAAF140
:101E90000101515C302908D0B84202DA10F1040F78
:101EA00006DA0121CDE9011015E0AAF10101E9E707
:101EB000002805DC049901440491AAEB000102E02A
:101EC000411C514500DD8A460499401A401C01908E
:101ED0004FF000400290200704D40198504501DBE8
:101EE000CDF8048000208DF84F0002980DF14F07C7
:101EF000B0F1004F25D02B200E9002984FF0020831
:101F000000280CDA404202902D200E9007E00A21B2
:101F10000298FEF771FC3031029007F8011DB8F10C
:101F20000001A8F10108F2DC02980028EFD1791E27
:101F30000E980870307800F0200040F0450007F857
:101F4000020D12A8C01B00F107081498007800B118
:101F5000012000EB0A01019801EBE0710598414472
:101F6000401A401E0590E00306D45B462146179AAE
:101F7000059800F05DF805441498007818B15A46A9
:101F8000179990476D1CE00324D55B462146179AAC
:101F9000059800F04DF805441CE00498002807DB84
:101FA000DDE90301884203DD0098405C179901E0F8
:101FB000179930205A469047049805F10105401CB6
:101FC00004900198401E019004D12E205A46179982
:101FD00090476D1CBAF10001AAF1010ADDDC05E0B1
:101FE00017F8010B5A46179990476D1CB8F100017C
:101FF000A8F10108F4DC5B462146179A0598ABE688
:102000002D0000002B000000200000002DE9F04111
:10201000044600251E461746880404D405E03946C8
:102020002020B0476D1C641EF9D52846BDE8F0811C
:102030002DE9F041044600251E469046C80301D50F
:10204000302700E02027880404D505E041463846C3
:10205000B0476D1C641EF9D52846BDE8F0810A68BA
:10206000531C0B601070704770B505460E46314624
:10207000284600F015F8044600BF214602A0FFF7ED
:1020800061FB00BF204670BD6261744164632069DA
:10209000732025642076616C75650D0A00000000D0
:1020A00070B505460C46022322460021284600F062
:1020B0001FF80021284600F075F800BF02212846CD
:1020C00000F00EF80028F9D00221284600F004F8AC
:1020D000284600F063F870BD02688A4302607047CA
:1020E00002461068084008B1012070470020FCE754
:1020F000F0B51D4606290CD2436B01EB81071F2664
:10210000BE40B34301EB810602FA06F63343436354
:1021100022E00C290ED2036B8E1F06EB86071F26CA
:10212000BE40B3438E1F06EB860602FA06F6334323
:10213000036311E010290FD2C36AA1F10C0606EB6C
:1021400086071F26BE40B343A1F10C0606EB8606A8
:1021500002FA06F63343C3620A2A0CD2046902EB80
:1021600042070726BE40B44302EB420605FA06F6D4
:102170003443046111E0132A0FD2C468A2F10A06A5
:1021800006EB46070726BE40B443A2F10A0606EB5B
:10219000460605FA06F63443C460F0BD0146C86C35
:1021A00080B2704711B101290AD104E0826842F07F
:1021B0008042826005E0826842F48002826000E032
:1021C00000BF00BF7047000010B5044603492068F7
:1021D000FEF76AF80248008880B210BD4A760020F7
:1021E000AC0000202DE9F04104460E469046002543
:1021F0000027092E01DABDE8F0810AE020782C28BA
:1022000003D0681C85B2641C03E0641C681C85B2A2
:1022100001E0B542F2DB00BF00BF294611A0FFF785
:1022200091FA00BF00BF314612A0FFF78BFA00BF42
:1022300000BF217813A0FFF785FA00BFB5420FDA7F
:102240002078312806D101201249087012A0FFF72A
:1022500079FA05E000200F49087014A0FFF772FA20
:1022600000BFC8E7646174615F706F73203D202513
:10227000640D0A00646174615F6C656E203D202509
:10228000640D0A0070646174615B305D203D20253F
:10229000640D0A00B10000206E6574776F726B20C8
:1022A00070732073756363210D0A00006E65747787
:1022B0006F726B207073206661696C6564210D0A12
:1022C00000000000F8B506460D4617460024002021
:1022D000009005B9F8BD0AE0072231A13046FDF7AC
:1022E000D6FF18B1761C601CC4B200E001E0AC421D
:1022F000F2DB00BF00BF29462BA0FFF723FA00BF87
:1023000000BF21462CA0FFF71DFA00BFAC4203D14D
:102310002DA0FFF717FADDE7002407E02046611C37
:10232000CCB2305C2C2800D000E001E0AC42F5DB00
:1023300000BF30196A4629A1FDF7C0FF00BFBDF8F4
:10234000001027A0FFF7FEF900BF07E02046611C40
:10235000CCB2305C2C2800D000E001E0AC42F5DBD0
:1023600000BF00BF294610A0FFF7ECF900BF00BF77
:10237000214611A0FFF7E6F900BFAC420EDA301992
:10238000BDF800201B4900F0A5FEBDF8001019485B
:1023900001F0E6FB174918A0FFF7D4F900BF99E751
:1023A0002B4E534F4E4D4900646174615F6C656EF6
:1023B000203D2025640D0A00646174615F706F73B5
:1023C000203D2025640D0A00616E616C797369738C
:1023D000206661696C6564210D0A000025640000B7
:1023E0006E65745F646174615F6C656E203D20256D
:1023F000640D0A00B47500207265637620666F7202
:102400006D20736572766572203A20257300000096
:1024100010B500200649087006A0FFF793F900F0F8
:10242000EDF940210748FDF7F4FE012010BD000042
:10243000A700002061742070617273652064656973
:102440006E6974007475002010B50D48007808B1ED
:10245000012010BD0BA0FFF775F940210D48FDF7D5
:10246000D8FE00BF00F0EAF900B903E001200449FA
:102470000870EEE700BFFFF7CBFF0020E9E70000A0
:10248000A7000020617420706172736520696E6915
:10249000740000007475002070B505460E4600BF3C
:1024A0002A4631461DA0FFF74DF900BF00242DE05C
:1024B00004EB44001F4A52F820102846FDF7C0FEE6
:1024C00078B104EB44001B4901EB8000826804EB07
:1024D000440001EB800031464368284698470120BC
:1024E00070BD04EB4400134951F8200040B104EBE7
:1024F00044000A4652F820100FA0FFF723F903E02A
:10250000214612A0FFF71EF9601CC4B2052CCFDBD8
:1025100015A0FFF717F90020E2E70000646174617D
:102520006C656E3A25642C207374723A28257329E1
:102530000D0A0000747500204E6F742066696E6489
:10254000206B65792025730D0A0000006C69737497
:10255000656E206B65795B25645D206973204E553F
:102560004C4C0D0A000000006D61746368206661C8
:10257000696C65640D0A00002DE9F04105460E46C0
:102580001746002410E004EB44001C4A52F82010C7
:102590002846FDF76EFE28B919A0FFF7D3F80020F2
:1025A000BDE8F081601CC4B2052CECDB002120E00A
:1025B00001EB4100114A52F82000C0B901EB410083
:1025C00002EB8000002202604260826001EB410069
:1025D0000A4A42F8205001EB410002EB80004660BD
:1025E00001EB410002EB800087600120D8E7481C26
:1025F000C1B20529DCDB0020D2E7000074750020A1
:102600005468697320707265666978206861732008
:102610006265656E207265676973746572656400D2
:102620002DE9F04104460D4617461E464FF00008BE
:1026300014B90020BDE8F0810DB90020FAE7214669
:102640000EA0FFF77FF800BF32462946204600F073
:10265000B7F9A84200D00BE03FB1324602210AA0F0
:1026600000F0AEF9022800D002E04FF0010800BFF0
:1026700000BF304600F092FA4046DBE74154206349
:102680006D643A25730D0A000D0A00002DE9FC5F08
:1026900004460E461546DDE90CA7DDF8388000201B
:1026A000019081462248007810B90020BDE8FC9FC7
:1026B0000CB90020FAE70DB90020F7E721461DA06C
:1026C000FFF740F82046FDF7CDFD42460146009059
:1026D000204600F075F983462046FDF7C3FD83458B
:1026E00001D00020E2E746B14246022114A000F0EA
:1026F00067F9022801D00020D8E700BF09F1C80916
:10270000C8220021504600F0DBF83880388838B104
:1027100029465046FDF794FD20B10120019003E0C9
:1027200000200190C145E9D300BF0198BEE7000039
:10273000A7000020415420636D643A25730D0A0000
:102740000D0A00002DE9F04104460D469046002692
:102750000027092D01DABDE8F0810AE020783A2847
:1027600003D0701C86B2641C03E0641C701C86B22B
:1027700001E0AE42F2DB00BFAE422ADA2078302818
:1027800024DB2078392821DC607830280FDB607862
:1027900039280CDC60783038217830390A2212FB75
:1027A0000100C7B239460CA0FEF7CCFF11E06078FB
:1027B0002C2807D120783038C7B2394606A0FEF75A
:1027C000C1FF06E008A0FEF7BDFF02E006A0FEF78D
:1027D000B9FF00BFBFE7000052535349206973207F
:1027E00025640D0A0000000043535120666F726D8E
:1027F0006174206572726F72210D0A0010B508A015
:10280000FEF7A0FF00200A4908700A490A4803F0B1
:10281000E3F808496031084803F0DEF8012010BDF4
:1028200061742075617274206465696E697400005A
:10283000A900002020000010004C004010B50E48F8
:10284000007808B1012010BD0CA0FEF77BFF0F49F6
:102850000F48FEF745FF084908700846007818B190
:102860000CA0FEF76FFF04E000BF0FA0FEF76AFFA9
:1028700000BF01480078E6E7A900002061742075D8
:1028800061727420696E6974210D0A00AC00002029
:102890004A7600206174207561727420696E6974D3
:1028A000206F6B210D0A0000617420756172742025
:1028B000696E6974206661696C6564210D0A0000A7
:1028C0002DE9F041064688461446002700252D488C
:1028D000007810B90020BDE8F08100BF2A480078D8
:1028E000002844D0FEF708FF00BF2848016828A050
:1028F000FEF728FF00BF2548006802282AD9294989
:10290000224A12681144881E022227A1FDF7BFFC4B
:1029100048B124491D4A12681144881E022223A18D
:10292000FDF7B5FCB0B900201E49184A126888545A
:102930003046FDF7B9FC00BF1A4A144801681CA0D4
:10294000FEF700FF00BF002110480068801E154AF6
:10295000115406E01948007818B112493046FDF7C5
:10296000A3FC0020084908700848076806E0052015
:1029700000F014F9681D85B2A542AFD300BF3846F8
:10298000A9E70000A9000020A8000020AC0000205A
:1029900061745F726563765F6C656E203D202564AF
:1029A000200D0A004A7600200D0A00004F4B00005F
:1029B00052282564293A257300000000B000002049
:1029C00070B505460C461646002005490860A2B2BF
:1029D0004FF6FF732946034802F036FF204670BDCC
:1029E000AC000020004C004010B52DED068B0446D5
:1029F0009FED160AB0EE408A2046FDF7A9FE41EC95
:102A00001A0B9FED130B53EC102BFDF7C0FD41EC9F
:102A1000190BFDF7D5FE00EE100ADFED0F0A80EE70
:102A2000201AB0EE418A00BF18EE100AFDF79DFE95
:102A300041EC190B53EC192B08A0FEF783FE00BFE5
:102A4000B0EE480ABDEC068B10BD0000000000008F
:102A50006666666666660A4000008045766F6C2092
:102A6000697320256620760D0A0000002DE9F041EB
:102A700006460C461746002507E0725D05A1204674
:102A8000FEF770FE681C85B2A41CBD42F5DBBDE8F4
:102A9000F0810000253032580000000010B50024FD
:102AA0001048007860B1104B104A1149114800F0ED
:102AB00071FB0F48FEF7D3FA032000F06FF80EE029
:102AC00009E0601CC4B201F041FF01F091FD00B9C2
:102AD00001E0012010BD032CF3DB0020FAE7012008
:102AE000F8E700001A0000200030014020410020DB
:102AF0003C4300202043002010B50648007808B170
:102B0000002010BD00F0B8FB022801D00120F8E73A
:102B10000020F6E71A00002070B503461046002496
:102B20000BE013F8016B86EA2025EDB2044E36F86F
:102B3000155085EA0025A8B2641C8C42F1DB70BDFB
:102B4000B85A000890B921B1012905D002290BD14A
:102B500006E0114B1A6008E00F4B1B1D1A6004E0E1
:102B60000D4B08331A6000E000BF13E021B10129CA
:102B700006D002290CD107E0074B0C331A6008E09D
:102B8000054B10331A6004E0034B14331A6000E065
:102B900000BF00BF704700000874004000EE100A3C
:102BA000B8EE400A124AD2ED000A20EE200ABCEE2E
:102BB000C00A10EE102A4FF0E0235A6100229A61F9
:102BC00001221A6100BF4FF0E022116901F00102F9
:102BD0001AB101F48032002AF5D04FF0E0221269D8
:102BE00022F001024FF0E0231A6100229A6170473F
:102BF000040000200448006820B103480068401E1B
:102C000001490860704700000C00002010B5044620
:102C100000F07AF8D32000F007F8204600F01EF804
:102C200000F008F810BD000001490860704700007E
:102C30000C3C02400348006840F000400149086035
:102C400070470000103C024000B5012200BF00F0B8
:102C500031F80246012AFAD0104600BD10B50346ED
:102C60000024FFF7F1FF0446FCB91148006820F08A
:102C7000F8000F4908600846006843F00201084365
:102C80000B4908600846006840F480300860FFF790
:102C9000DBFF04460648006820F002000449086093
:102CA0000846006820F0F8000860204610BD0000CB
:102CB000103C024000201349096801F48031B1F54D
:102CC000803F01D101201CE00E49096801F010018C
:102CD00009B1052015E00B49096801F4807109B1BB
:102CE00002200EE00749096801F0EF0109B1072051
:102CF00007E00449096801F0020109B1062000E07B
:102D0000002070470C3C02400548006800F000407D
:102D100028B1044802490C3908600348086070472C
:102D2000103C024023016745AB89EFCD30B5034627
:102D30000C460025FFF788FF0546CDB90D48006811
:102D400020F440700B4908600846006840F40070A9
:102D500008600846006840F0010008601C60FFF74A
:102D600073FF05460348006820F001000149086030
:102D7000284630BD103C024070B504460D46E1B215
:102D8000054802F05DFD00BF0721034802F005FE83
:102D90000028F9D0204670BD0044004010B504461C
:102DA000152202492046FDF71BFA10BDD000002075
:102DB0002DE9F04104460E4617460025194904F155
:102DC0002F00FDF771FA3B213220015584F8336062
:102DD00034200155FEF738F884F835003B213620C1
:102DE00001550A2084F837003820015500BF2946D4
:102DF0000DA0FEF7A7FC00BF281284F839003A2086
:102E000005553B2109550D480088001284F83C0007
:102E10000A4801783D2001553B213E200155BDE87F
:102E2000F0810000FB00002074656D7065726174B4
:102E3000757265203D2025640D0A00000601002002
:102E40001CB541F2110001F03DFA4FF4406001F071
:102E500039FA04220721224800F050F8022000210C
:102E60000B460246CDE9001004211D4800F0FBF896
:102E7000082207211A4800F041F8022000210B46E1
:102E80000246CDE900100821154800F0ECF815487D
:102E900002F010FD4FF4E131124802F059FC00211C
:102EA000104802F0DCFD00210E4802F0C8FD0021B0
:102EB0000C4802F0B4FD00210A4802F085FD002113
:102EC000084802F079FD0421064802F0B0FD08210F
:102ED000044802F0BCFD034802F05AFD1CBD00008E
:102EE0000000024000440040004870474045002078
:102EF000014800787047000020000020F0B503462C
:102F00001C6A5D6A00200DE00126864016403EB135
:102F100087000F26BE40B443860001FA06F634430C
:102F2000461CB0B20828EFD3082011E001268640E5
:102F300016405EB1A0F10806B7000F26BE40B543AB
:102F4000A0F10806B60001FA06F63543461CB0B2F9
:102F50001028EBD31C625D62F0BD81627047816115
:102F6000704700001CB54FF4406001F0ABF940F62B
:102F7000014001F0A7F940F6024001F0A3F940F644
:102F8000034001F09FF94FF4406001F09BF94FF4CA
:102F9000406001F097F94FF4406001F093F900238D
:102FA0001A464FF400410F4800F020F84FF400415A
:102FB0000C4800F029F890B100F00CF90220002133
:102FC0000B460122CDE900108102074800F04BF8C2
:102FD00000231A464FF40041024800F007F802F0BF
:102FE00069FB1CBD00100240000402402DE9F041C5
:102FF00006460C4615461F46234602222946304601
:1030000000F00AF8BDE8F08102461069084008B1F6
:10301000012070470020FCE7F0B504460D46164637
:103020002168E268002019E0012787401F409FB116
:103030004FEA400C032707FA0CF7B943470005FA9B
:1030400007F739434FEA400C032707FA0CF7BA4356
:10305000470006FA07F73A43471CB8B21028E3D3F3
:103060002160E260F0BD2DE9F04707460C461546A9
:103070001E46DDE908892346324629463846FFF7D1
:10308000CBFF23464A464146384600F002F8BDE8E9
:10309000F087F0B50C461546012C03D146681E4357
:1030A000466002E046689E434660826800210DE06B
:1030B00001268E401E403EB14F000326BE40B24363
:1030C0004E0005FA06F632434E1CB1B21029EFD37A
:1030D0008260F0BD70B503460024002500261DE087
:1030E0001878392803DD18783738C5B202E0187827
:1030F0003038C5B25878392803DD58783738C6B229
:1031000002E058783038C6B246EA051008709B1CB9
:10311000491C601C84B2944200DB02E0187800284D
:10312000DED100BF00200870012070BD7CB50446D0
:103130000D4684F8E85094F8E800012810D10A20E0
:103140000721CDE900101148027901231048FEF74C
:1031500092F84FF4FA621021D4F8F801FDF7F4FF69
:1031600094F8E80088B90A200721CDE90010074843
:103170000279012309210648FEF77DF84FF4FA622F
:103180001021D4F8F801FDF789FF7CBD1000002064
:103190003C4300202DE9F04104460E4615461F46EB
:1031A0000B49E1600815A06061618000206108465C
:1031B0006060C0142060A7613460C5F8F861DE204B
:1031C00085F8EC0000212846FFF7B0FFBDE8F0814C
:1031D0000004024000B587B041F20E0001F072F821
:1031E000002001904FF48270009000200290059022
:1031F0004FF4007003902020069000200490694650
:10320000034801F072FD024801F05CFD07B000BD0B
:103210000038004001F018FE012211461E2000F087
:103220006BFF022211461C2000F066FFFFF79AFE9A
:10323000FFF706FE09A0FEF785FA00BF012000F0A7
:10324000AFFF0446214607A0FEF77CFA00BF02F05C
:10325000D8F8FFF723FC00BFFEE7000068656C6C40
:103260006F0D0A0073797374656D20636C6F636B07
:103270003A2025640D0A00000148007870470000DC
:10328000FF00002070B505460C460FA12846FDF74B
:103290000BF811A12846FCF7C7FF2846FCF7E2FF10
:1032A000208021884819FFF779FD2088153020807B
:1032B0002B20218868543B212088401C29542088D9
:1032C000801C208070BD000045544D313030536566
:1032D0006E736F723B0000006865617274626561B5
:1032E000743B000001480078704700000201002094
:1032F0000148007870470000030100202DE9F047E5
:1033000080460C4600250026B8F1090F7ED2DFE882
:1033100018F00900160078010A030F03F600600395
:103320007D00610300BFF8A0FEF70CFA00BFFE4865
:103330000078022802D1012000F006FEC0E3FBA1C4
:10334000FE48FCF7B1FFFEA1FC48FCF76DFFFB480F
:10335000FCF788FFFE490880F849FD4A1288881862
:10336000FFF71CFDFA4800881530F9490880A0785D
:10337000F249F74A12888854E178F04AF448008804
:10338000401C11542179F2480088801C11543B21C3
:10339000EF480088C01C1154ED480088001DEC491E
:1033A0000880A01C00F026FE08B10B2100E00A21D5
:1033B000E248E74A128881543B210246E4480088EB
:1033C000401C1154E2480088801CE1490880A07824
:1033D0003038642110FB01F1E07830380A2212FB0A
:1033E000001120793038084485B21021D94800F006
:1033F000B1FF064600BF3146D7A0FEF7A3F900BFD4
:10340000D448FFF703FC6179681E00E057E3D94A0E
:1034100002EBC0008170A179681E02EBC000C17090
:1034200000BF2946D4A0FEF78DF900BF00BF617927
:10343000D5A0FEF787F900BF00BFA179D5A0FEF7A0
:1034400081F900BF681ECB4901EBC0008178681E7E
:10345000400046F82010681EC64901EBC000C17844
:10346000681E06EBC000416000BF681E400056F8B1
:103470002010CBA0FEF766F900BF00BF681E06EB68
:10348000C0004168C9A0FEF75DF900BF002721E038
:10349000780016F82000B74901EBC701887006EBE9
:1034A000C7000079B34901EBC701C87000BFB1483C
:1034B00000EBC7008178B4A0FEF744F900BF00BF5D
:1034C000AC4800EBC700C178B2A0FEF73BF900BFE3
:1034D000781CC7B2032FDBDB324606219D4802F081
:1034E000C6FA20B100BFB4A0FEF72CF904E000BF7B
:1034F000B7A0FEF727F900BF00F052FBE0E2A41CE2
:1035000060782178182212FB0100B6498860A07803
:10351000C860002008614AF6AA20086000204860C0
:10352000B148FFF773FBAF4A0521AF4802F09FFA9D
:1035300000BFAC480369C2688168ACA0FEF702F91D
:1035400000BF00BFA7480168B0A0FEF7FBF800BFAE
:1035500000BFA4488168B3A0FEF7F4F800BF00BF25
:10356000A048C168B5A0FEF7EDF800BF00BF9D48B8
:103570000169B8A0FEF7E6F800BF6CA16F48FCF740
:1035800093FEBAA16D48FCF74FFE6C48FCF76AFE4B
:103590006F49088069496E4A12888818FFF7FEFB58
:1035A0006B48008815306A49088030216348684AB2
:1035B00012888154024666480088401C115431210B
:1035C00063480088801C11543B2161480088C01C5E
:1035D00011545F480088001D5D4908800D20114688
:1035E0005B4A128888543B21544A59480088401C41
:1035F000115457480088801C5549088000F0D0FAC3
:103600005EE2A0783038642110FB01F1E0783038B8
:103610000A2212FB0011207930380844401E85B27E
:1036200042A14648FCF740FE94A14448FCF7FCFD4B
:103630004248FCF717FE464908804049444A128830
:103640008818FFF7ABFB42480088153040490880D6
:10365000A0783A493E4A12888854E178374A3C4873
:103660000088401C1154217939480088801C11546D
:103670003B22324936480088C01C0A54344800882E
:10368000001D33490880032D06DD14202B49304AE4
:1036900012888854002504E0152028492C4A1288F5
:1036A00088543B21254A2A480088401C1154284848
:1036B0000088801C264908804FF00009CA46102166
:1036C000244800F047FE8146680019F820A01B48F6
:1036D0001F49098800F801A03B2102461C480088C8
:1036E000401C1154694800EBC500C1781848008897
:1036F000801C11543B2116480088C01C115463489B
:1037000000EBC5004178C3E073656E6420746F20E0
:10371000736572766572204F4B20616E64206E6F08
:1037200020636D64210D0A00FF00002045544D31D7
:10373000303053656E736F723B00000030830020A1
:103740007365745F706172616D735F61636B3B0081
:103750000001002000C0030870726F626547616954
:103760006E4176672061646472203A2025700D0AEC
:10377000000000002200002070726F62656E756D9F
:103780003A2025640D0A00004741494E3A2025643D
:103790000D0A00004156473A2025640D0A0000003A
:1037A0004741494E313A2025640D0A0041564731C0
:1037B0003A2025640D0A00000D0A736574206761C4
:1037C000696E20737563636565640D0A000000000F
:1037D0000D0A736574206761696E206661696C65A6
:1037E000640D0A00740000200060030873616D70AE
:1037F0006C652074696D65203A20253032643A2565
:103800003032643A253032640D0A00002073616D55
:10381000706C655F74696D652E666C6167202578D4
:103820000D0A00002073616D706C655F74696D65D1
:103830002E686F75722025640D0A00002073616D7B
:10384000706C655F74696D652E6D696E20202564EE
:103850000D0A00002073616D706C655F74696D65A1
:103860002E736563202025640D0A00007365745F64
:1038700074696D655F61636B3B0000006765745F31
:10388000706172616D735F61636B3B00487500200E
:103890008D480088001D11543B218B480088401D35
:1038A00011548A4800EBC500017987480088801DC3
:1038B00011543B2184480088C01D1154834800EBFB
:1038C000C500417980480088083011543B217E486A
:1038D0000088093011547D4800EBC500C0880112F2
:1038E000794800880A301154784800EBC500817986
:1038F000754800880B3011543B21734800880C3008
:103900001154714800880D306F4908803B216E4882
:103910000088C01C11546C480088001D6A4908804A
:1039200000F03EF9CCE0A178E01CFDF70AFEC7E00C
:10393000AFF208216648FCF7B7FC66A16448FCF7C3
:1039400073FC6348FCF78EFC5F49088060495E4A5F
:1039500012888818FFF722FA5B48008815305A4908
:103960000880A078A8B129215948574A1288815463
:1039700001205B490870002000F0E6FA002001F009
:103980006BF900205749087000BF57A0FDF7DAFE19
:103990000CE033204E494C4A12888854022050498A
:1039A000087000BF56A0FDF7CDFE00BF3B21484A7E
:1039B00045480088401C115443480088801C4249F7
:1039C000088000F0EDF8A07810B9012000F0BCFAF2
:1039D00076E075E04AF6AA204F490860E078486032
:1039E000207988606079C860A0790861E079000278
:1039F000486108464069217A08434749486100BF49
:103A0000E17846A0FDF79EFE00BF00BF217943A0EC
:103A1000FDF798FE00BF00BF617940A0FDF792FE60
:103A200000BF00BFA1793DA0FDF78CFE00BF00BF25
:103A3000E1793CA0FDF786FE00BF00BF217A39A0E6
:103A4000FDF780FE00BFAFF21C312148FCF72CFCD3
:103A500038A11F48FCF7E8FB1D48FCF703FC1A4996
:103A600008801B49184A12888818FFF797F91648EA
:103A7000008815301449088051201549124A1288CF
:103A80008854002000F060FA002001F0E5F800BF43
:103A90002CA0FDF757FE00BF3B210D4A0A480088C5
:103AA000401C115408480088801C074908801A4AA5
:103AB00006212A4801F0DBFF00F072F800E000BFA9
:103AC00000BF0120BDE8F0870001002048750020FC
:103AD0003083002064656275675F61636B3B000043
:103AE000FF000020FA0000206E6574776F726B2073
:103AF0007374617274206465627567210D0A000039
:103B00006E6574776F726B2073746F70206465627A
:103B10007567210D0A0000007493002069703A2532
:103B2000640D0A0074656D705F506F72743A25649D
:103B30000D0A00007570646174655F69705F616390
:103B40006B3B00006368616E676520697020616E81
:103B5000642070726F74210D0A0000000080030859
:103B600070B504460D46002000F0EEF9012000F08B
:103B7000BDFA207838B1012000F036FA607821468D
:103B8000FFF7BCFB70BD002000F02EFA0348007860
:103B900008B900F0ABF90120F4E7000004010020AF
:103BA00010B5002000F0D0F908480188084800F05E
:103BB000B9F900200749087007480078022802D1A7
:103BC000012000F011FA012010BD000000010020CA
:103BD0003083002004010020FF0000202DE9FF5F5A
:103BE0008346984600254FF0420901264FF4D277CC
:103BF000AA460020039002900190009001208D4978
:103C000008708D4C002000F09FF9002000F0ECF9C6
:103C100010218A4800F09EFB01904FEA480101986C
:103C200010F821000090009800F01CFCBBF1000F80
:103C300078D100F0B4FA0821814800F0EBFB81A1B3
:103C40002046FCF731FB83A104F10D00FCF72CFBAF
:103C500004F11400FFF7A2F88048008890FBF7F009
:103C60007E49098891FBF7F207FB121109B1012186
:103C700000E0002108447A4908700846007884F87A
:103C800029003B212A2001552C200155FFF730F94E
:103C900003900398F0B9FFF727F97249086000BF55
:103CA0000846016870A0FDF74DFD00BF6B48018814
:103CB0006C48006800F0E9FB71480078022801D1E7
:103CC0003D2000E01F2084F82D0000BF6DA0FDF70F
:103CD00039FD00BF424620460099FFF769F800F021
:103CE0005DFA3B212E2001555E4800680290204677
:103CF00000F04EFB00BF69A0FDF724FD00BF42228B
:103D000021466B48FCF76CFA00BF6AA0FDF71AFD6C
:103D100000BF039800283DD059480078022802D1FE
:103D20003C2001E036E01E2084F82D0000BF64A096
:103D3000FDF708FD00BF012004F8290FA070002046
:103D4000E074293C00213D2001556448A0F8009012
:103D50003B20624909886054002160480088401C6B
:103D600021545E480088801C5C490880204600F091
:103D70000FFB5A480188204600F0D4F800202D4956
:103D80000870422221464A48FCF72AFA002004B073
:103D9000BDE8F09F47E0FFF7ABFA08B10120F6E776
:103DA0002E480088A0EB0A00B84201DD3D4604E041
:103DB0002A480088A0EB0A0085B20AEB05001FFA2A
:103DC00080FA012E12D12748006802904222384919
:103DD0002046FCF705FA6A0004F142000299FCF75C
:103DE000FFF909EB45003D4908800AE06A0004F14B
:103DF00033000299FCF7F4F909EB45000F38374915
:103E00000880029800EB4500029084F82B60701C3B
:103E1000C6B200BF32A0FDF795FC00BF2F48018855
:103E2000204600F07FF80E4800788642B3DD01207E
:103E3000ADE70000040100203083002000C003082B
:103E40002045002045544D31303053656E736F72FC
:103E50003B00000075706C6F61643B000601002040
:103E6000100100201401002073616D706C655F64A7
:103E70006174612061646472203A2025700D0A002B
:103E8000FF0000206765742073616D706C652064AD
:103E90006174612073756363210D0A0073616D7035
:103EA0006C655F66756C6C5F637263210D0A000060
:103EB000309300206D656D637079210D0A0000005C
:103EC0006765742073616D706C6520646174612036
:103ED0006661696C6564210D0A0000000001002024
:103EE0007061636B5F636E74210D0A0010B5FFF79C
:103EF000FFF908B1012010BD0748007828B907482C
:103F00000188074800F00EF8F5E700230122194662
:103F10001046FFF763FEEEE70401002000010020D9
:103F20003083002070B505460C46002000F05CF898
:103F3000224604492846FEF799FD2146014800F033
:103F40007FFD70BD308B002010B5044624B900BF42
:103F50000BA0FDF7F7FB10E000BF0FA0FDF7F2FB91
:103F600000BF022013490870002013490880012077
:103F7000124908700020124908701248047010BDE0
:103F80006E6574776F726B20636F6E6E65637420FD
:103F90006B656570210D0A006E6574776F726B201A
:103FA000636F6E6E65637420636C6F7365210D0AB9
:103FB00000000000FF00002000010020030100209D
:103FC000040100200201002010B50446224603A18E
:103FD0000448FDF7C7FB012010BD00002530336405
:103FE00000000000FB00002001490870704700003D
:103FF000030100207FB5054628783038642110FB86
:1040000001F1687830380A2212FB0011A8783038A4
:104010000844401E84B2032C02DB002004B070BDB3
:10402000ED1C2878244901EBC40188706878224986
:1040300001EBC401C870A8781F4901EBC4014870A6
:10404000E8781D4901EBC401087128791A4901EB90
:10405000C4014871A879697940EA0120164901EB49
:10406000C401C88000BF15A0FDF76CFB00BF00BFF6
:10407000114800EBC400C0880F4901EBC401497925
:104080000D4A02EBC40212790B4B03EBC4035B78BD
:10409000CDE90032CDE90210074800EBC400C37837
:1040A000054800EBC400827821460F48FDF74AFB23
:1040B00000BF00BFB2E70000487500202A2A2A2A64
:1040C0002A2A2A2A2A2A2A2A2A5345542050415287
:1040D000414D2A2A2A2A2A2A2A2A2A2A2A2A2A2A06
:1040E0002A2A2A2A0D0A00003C5D000801490870AE
:1040F0007047000005010020F0B50B4600210024A8
:104100000025244E366806F4E066B6F5E06F02D16D
:1041100000BF042526E01F4E366806F4E066B6F5BB
:10412000C06F02D1012403251CE01A4E366806F444
:10413000E066B6F5A06F02D10224022512E0154E0A
:10414000366806F4E066B6F5806F02D103240125D7
:1041500008E0104E366806F4E066B6F5407F01D1FF
:1041600004240025C4F1040603FA06F1C5F104078E
:104170000F26FE40164031430901074E315400F02E
:104180001F070126BE404711BF0007F1E027C7F80F
:104190000061F0BD0CED00E000E400E07047704706
:1041A0002DE9F04F8CB0064600200A903EA090E822
:1041B000004CC068CDE905BECDF810A007900FF205
:1041C000EC0ADAE9000ACDE9020A0FF2E00ADAE9BC
:1041D000000ACDE9000A38480068C0F381000B905E
:1041E0000B9820B1012804D0022828D103E03349DC
:1041F00027E0334925E03048001F006800F03F0702
:104200002D48001F0068C0F3881C2B48001F006861
:10421000C0F30140401C4FEA40092748001F0068D6
:1042200000F48008B8F5800F01D1254B00E0234B46
:10423000B3FBF7F000FB0CF0B0FBF9F101E01F4914
:1042400000BF00BF1C480068C0F3031404A8055D4C
:1042500021FA05F218480068C0F3822402A8055D1F
:1042600022FA05F0099014480068C0F342341DF8A2
:10427000045022FA05F0089036B1012E06D0022E25
:1042800006D0032E0AD106E00A9108E00A9206E061
:1042900009980A9003E008980A9000E000BF00BF68
:1042A0000A980CB0BDE8F08F00000000000000008C
:1042B0000102030406070809083802400024F4003C
:1042C00000127A00074A02EB9011D1F8001800F0B2
:1042D0001F0301229A401143024B03EB9012C2F8D4
:1042E0000018704700300240074A02EB9011D1F8E5
:1042F000001800F01F0301229A409143024B03EB88
:104300009012C2F80018704700300240074A02EBD2
:104310009011D1F8001800F01F0301229A401143B8
:10432000024B03EB9012C2F80018704700300240B5
:104330006FF08071884205D1054909680140044A3F
:10434000116004E0024909680143014A11607047A5
:104350008C38024070B506460D460024002D01DD64
:10436000202D01DD002070BDFEF7CEFC002406E00C
:1043700056F82400054941F82400601CC4B2AC4240
:10438000F6DBFEF757FC0148EDE70000484400204B
:1043900070B5044600253B214120015500223F21F4
:1043A0002046FEF7B9FB05462A46012113A0FEF779
:1043B000B3FB054694F83C0010B93D20005D58B1B0
:1043C000FEF792FD06460E48008841002A46304618
:1043D000FEF7A2FB054605E02A4601210020FEF774
:1043E0009BFB0546281284F83F004020055500BF7E
:1043F000294604A0FDF7A6F900BF70BD3B000000F0
:10440000060100204352432069733A253034580D89
:104410000A0000002DE9F04107460C4647F23055EE
:1044200000260A2C01DDBDE8F081FCF70BFE0646F4
:104430000120A0400549088000BF0846018804A06B
:10444000FDF780F900BF00BFEDE700001E0000206F
:1044500073616D706C655F636F756E74203D2025B0
:10446000640D0A0070B50446302C00DD70BD40F2CA
:10447000D9406043302190FBF1F085B22A460021FB
:104480000846FEF75FFB00BFF0E730B502460020AC
:10449000002300BF11E032F81040231232F8104020
:1044A0004FF6FF7505EA042422F8104032F8104058
:1044B0001C4322F81040441CA0B28842EBDB30BD04
:1044C00010B50EA0FDF73EF900F020FAFDF7A0FFB1
:1044D0004FF497710E48FBF79CFE00200D490870C1
:1044E0000D4908700D4908700D4908700D49087094
:1044F0000D4908800D490870012010BD73696D37A2
:10450000303230206465696E6974210D0A00000044
:1045100076770020B3000020B1000020B00000201A
:10452000B4000020B5000020B6000020B20000203A
:1045300000B58FB04FF4FA5200211C48FEF7C0F9C5
:104540001A49A1F82C010846B0F82C0100BB184804
:104550000088401C164908800846008800EB80004F
:10456000410014A0FDF7EEF8002080421CD1FEF7B8
:10457000C3FAC8B10020019001A902A8FEF782FE8B
:10458000BDF8041002A8FFF7CDFC00F095F90BE090
:1045900010A0FDF7D7F80548B0F82C11FDF77CFF07
:1045A00010B10020024908800FB000BD76770020CE
:1045B000B60000206E6574776F726B2069646C655D
:1045C00020636E74206973202564207365630D0A6F
:1045D0000000000073746172742070726F63657301
:1045E000732073657276657220646174610D0A00D0
:1045F00010B5002464A0FDF7A5F8002066490880E6
:104600004FF497716548FBF704FEFDF71DFF644802
:10461000007818B900F0C6F96149087084E0601CA0
:10462000C4B21E20FEF7BAFA002000F0DDFA00B98D
:104630007AE04FF47A725BA15BA000F0E1F900B977
:1046400072E01E20FEF7AAFA4FF47A7255A15BA021
:1046500000F0D6F900B967E01E20FEF79FFA4FF48C
:104660007A7250A15AA000F0CBF900B95CE01E208C
:10467000FEF794FA4FF47A724AA15AA000F0C0F9FA
:1046800000B951E01E20FEF789FA4FF47A7245A175
:1046900059A000F0B5F900B946E01E20FEF77EFAF9
:1046A0004FF47A723FA159A000F0AAF900B93BE09B
:1046B0001E20FEF773FA4FF47A723AA157A000F069
:1046C0009FF900B930E01E20FEF768FA4FF47A72C5
:1046D00034A155A000F094F900B925E01E20FEF7A2
:1046E0005DFA4FF47A722FA153A000F089F900B956
:1046F0001AE01E20FEF752FA4FF47A7229A152A056
:1047000000F07EF900B90FE01E20FEF747FA4FF4E3
:104710007A7224A14FA000F073F900B904E00120DF
:104720004F490870002400BF4D48007810B9032C91
:10473000FFF675AF1FE0601CC4B26420FEF72EFACE
:104740004FF47A7217A147A000F05AF900B912E0AD
:104750006420FEF723FA4FF47A7245A147A000F0D7
:104760004FF900B907E001204749087047A0FCF75E
:10477000E9FF012010BD052CDDDB49A0FCF7E2FFBD
:10478000FFF79EFE0020F5E7453730323520696E91
:104790006974210D0A000000B60000207677002021
:1047A000B50000204F4B000041542B4E563D47456D
:1047B000542C4558545645520000000041542B4E8D
:1047C000504F574552434C4153533D332C36000014
:1047D00041542B4E504F574552434C4153533D3556
:1047E0002C36000041542B4E504F574552434C41FC
:1047F00053533D382C36000041542B4E504F5745F3
:1048000052434C4153533D32302C360041542B4ED1
:10481000504F574552434C4153533F0041542B4353
:1048200050534D533F00000041542B5245534554C3
:1048300043544C3D3000000041542B5245534554E5
:1048400043544C3F0000000041542B4E534F4E4DFB
:10485000493D330041542B4E534F4E4D493F0000CC
:10486000B200002041542B4346554E3D310000001C
:104870002B4350494E3A52454144590041542B4331
:1048800050494E3F00000000B30000204537303251
:104890003520696E6974206F6B210D0A00000000DD
:1048A000453730323520696E6974206661696C6500
:1048B00064210D0A0000000038B50A480090002469
:1048C0006846FDF781FC0446142C08DD06A0FCF7C1
:1048D00039FF21460098FDF7DFFD012038BD00209B
:1048E000FCE70000767700207374617274207072A8
:1048F0006F6365737320736572766572206C6F7376
:104900007320646174610D0A0000000010B500247A
:1049100009A0FCF717FF0BE0601CC4B2C820FEF72B
:104920003DF9002000F0A4F900B901E0012010BD1C
:10493000032CF1DB0020FAE7453730323520706F69
:10494000776572206F6666210D0A000010B500BF02
:104950000DA0FCF7F7FE00BF4FF480410F48FEF7B3
:10496000FEFA6420FEF71AF94FF480410B48FEF777
:10497000F4FA4FF4FA70FEF711F9002008490870B4
:1049800000F046F9012010BD7374617274206E62EC
:1049900020726573657420210D0A00000004024036
:1049A000B100002010B5012400220B490BA0FDF737
:1049B000E3FD00B9002400220A490BA0FDF7DCFD4D
:1049C00000B9002400220A490AA0FDF7D5FD00B96C
:1049D0000024204610BD0000452700082B435351FA
:1049E0003A000000E52100082B43455245473A00B4
:1049F000C52200082B4E534F4E4D493A000000008F
:104A0000FEB506460C4615464FF496710948FBF76D
:104A100000FC4FF496700749A1F82C0101F596703F
:104A200005A32246CDE90105009101213046FDF79D
:104A30002DFEFEBD767700204552524F52000000F9
:104A40002DE9F04F87B080460C464948007818B9E8
:104A5000002007B0BDE8F08FB4F57A7F01D90020BF
:104A6000F7E700260025002740F21459C3464148C5
:104A70000078002840D04048028840A104A8FCF7F4
:104A800071FE3FA14248FBF70FFC42494048FBF74B
:104A9000CBFB41A13E48FBF7C7FB04A93C48FBF711
:104AA000C3FB3EA13A48FBF7BFFB224633A104A853
:104AB000FCF758FE04A93648FBF7B6FB38A134488A
:104AC000FBF7B2FB3248FBF7CDFB3149084400EB62
:104AD0004400002101602E48FBF7C4FB2C49084428
:104AE000620041460390FBF77BFB2948FBF7BAFBCA
:104AF000274922220A5403E02AA12548FBF7D4FBC8
:104B000000BF601B484501D94F4600E0671B40F2DB
:104B1000DC512748A0F5967226A3CDE9002002912A
:104B200026A201211A48FDF7B1FD8246FFF7C4FE17
:104B300020B1FEF7DDFB08B101208AE7BAF1010FD1
:104B40000DD0701CC6B2032E04DD1DA0FCF7FAFDCB
:104B500000207EE731461EA0FCF7F4FD04E00026AD
:104B60003D440BEB470B00BFA542CAD3012070E7C1
:104B7000B0000020B4000020CC000020256400001C
:104B800041542B4E534F53543D302C220000000013
:104B9000A4780020B8000020222C00002C00000087
:104BA0002C22000041542B4E534F53543D312C00C6
:104BB000A27800204552524F520000004F4B000097
:104BC00073656E64206661696C6564210D0A00007E
:104BD00073656E64206E6F20726573706F6E6420F3
:104BE0002564200D0A00000070B504464FF47A7069
:104BF000FDF7D4FF00254CB906E0681C85B264209F
:104C0000FDF7CCFF012070BD032DF6DB0020FAE795
:104C100010B500244FF416510A4800F099FD05E044
:104C2000C82301220D2108A0FDF7FAFC2046611CD3
:104C3000CCB20328F4DB4FF4E131024800F088FDE8
:104C4000012010BD004C004041542B4950523D31D1
:104C500031353230300000000246002103E0481CAC
:104C6000C1B2012070470229F9DB0020FAE70000F9
:104C700070B50546002400200A4908700EE0601C4B
:104C8000C4B26420FDF78AFF4FF47A7206A109A02E
:104C9000FFF7B6FE00B901E0012070BD032CEEDB8A
:104CA0000020FAE7B10000202B504F574552444FE7
:104CB000574E000041542B464153544F46463D3019
:104CC00000000000016841F04001016070470146AA
:104CD000C86880B27047C16070470246906808405B
:104CE00008B1012070470020FCE702460020106850
:104CF00000F441500B6818434B6818438B68184305
:104D0000CB6818430B6918434B6918438B691843E8
:104D10001060D36923F40063D36170470020002141
:104D20003A4A126842F00102384B1A6000BF401C38
:104D3000364A126802F0020111B9B0F5A06FF6D13F
:104D4000324A126802F002020AB900BFFEE72F4A97
:104D50004032126842F080522C4B40331A602C4A89
:104D6000126842F440422A4B1A60284A08321268FC
:104D7000264B08331A601A46126842F400421A6041
:104D80001A46126842F4A0521A60224A1B1F1A6087
:104D90001A1F126842F080721B1F1A6000BF1B4A64
:104DA000126802F00072002AF9D0194A126842F41F
:104DB0008032174B1A6000BF154A526802F48032E5
:104DC000002AF9D0124A126842F40032104B1A60DD
:104DD00000BF0F4A526802F40032002AF9D00B4A91
:104DE0000832126822F00302084B08331A601A4690
:104DF000126842F002021A6000BF044A08321268C8
:104E000002F00802002AF8D0704700000038024083
:104E1000007000401064000910B5FFF77FFF10BD5F
:104E2000042808D14FF0E021096941F004014FF056
:104E3000E022116107E04FF0E021096921F004014F
:104E40004FF0E0221161704710B56FF00400FFF7DA
:104E5000E7FF0B4890ED000AB8EE400ADFED090AC3
:104E600080EE201A084880ED001A90ED000ADFED70
:104E7000070A20EE200A064880ED000A10BD000057
:104E8000440000200024F44A0000002000007A447E
:104E90000400002000B589B04FF48850FFF712FAE3
:104EA0004FF08070FFF744FA2A4800F0B5FA01206D
:104EB000ADF804000020ADF80600ADF8080040F29F
:104EC000816003900020ADF8100032208DF81200B0
:104ED00001A9204800F070FB002005900420ADF8E7
:104EE00018000020ADF81A000820ADF81C000020C2
:104EF000ADF81E00ADF8200005AA0021154800F00D
:104F00001DF940F241320021124800F03AFA6022C5
:104F10000021104800F008FA002211460D4800F068
:104F200043FA01210B4800F0F1FB0021094800F091
:104F3000F9FB084800F0F0F80021064800F0ACFB4F
:104F40003021044800F084FB0621024800F0F7FB02
:104F500009B000BD000001401FB54FF48050FFF7BD
:104F6000B1F94FF08070FFF7E3F94FF0804000F0A7
:104F700053FAC720ADF800000020ADF80200ADF8EC
:104F8000040040F6B73002900020ADF80C006946EE
:104F90004FF0804000F010FB0121880700F064FB17
:104FA0000121880700F05CFB4FF0804000F0B4F86E
:104FB00000214FF0804000F06FFB30214FF0804027
:104FC00000F046FB2021480600F05EFB06214FF072
:104FD000804000F0B4FB00214FF0804000F0A1F8C9
:104FE0004FF48071880500F0DEFA1FBD00B589B06E
:104FF00041F20100FFF766F96FF08070FFF798F952
:10500000294800F009FA0020ADF80400ADF80600C8
:10501000ADF8080040F2F31003900020ADF8100046
:105020008DF8120001A9204800F0C6FA0120059071
:105030000020ADF818000220ADF81A000820ADF8E5
:105040001C000020ADF81E00ADF8200005AA0221CA
:10505000154800F073F863220221134800F091F91B
:1050600060220221104800F05FF9002202210E4860
:1050700000F09AF901210C4800F048FB00210A4891
:1050800000F050FB084800F047F80021064800F007
:1050900003FB1021044800F0DBFA0621024800F06F
:1050A0004EFB09B000BD0000000400401FB541F2F6
:1050B0000200FFF707F94FF08070FFF739F9154844
:1050C00000F0AAF940F2CF70ADF800000020ADF872
:1050D0000200ADF8040040F2CF7002900020ADF85D
:1050E0000C0069460B4800F067FA0121094800F0FE
:1050F000BBFA0121074800F0B3FA0021054800F08F
:10510000CBFA2021034800F0BFFA024800F04FFA22
:105110001FBD000000080040016821F0800101600F
:10512000704721B9426842F00802426005E0012957
:1051300003D1426822F008024260704710B531B1D5
:1051400001293FD002297DD003297CD1BFE0036A29
:1051500023F001030362036A146823430362036AB2
:1051600023F002030362036AD488234303626C4B77
:10517000984202D06B4B98421FD1036A23F004037C
:105180000362036A948823430362036A23F00803DB
:105190000362036A148923430362436823F4807320
:1051A00043604368548923434360436823F4007396
:1051B00043604368948923434360836923F0030376
:1051C0008361ABE0036A23F010030362036A14688F
:1051D00043EA04130362036A23F020030362036AB1
:1051E000D48843EA041303624D4B984202D04D4BDE
:1051F000984223D1036A23F040030362036A948830
:1052000043EA04130362036A23F080030362036A20
:10521000148943EA04130362436823F48063436000
:105220004368548943EA84034360436823F400637A
:1052300043604368948943EA84034360836923F4A9
:10524000407301E002E068E0836167E0036A23F4F1
:1052500080730362036A146843EA04230362036AE7
:1052600023F400730362036AD48843EA04230362CD
:105270002B4B984202D02B4B984223D1036A23F444
:1052800080630362036A948843EA04230362036A27
:1052900023F400630362036A148943EA042303626C
:1052A000436823F4805343604368548943EA0413FA
:1052B0004360436823F4005343604368948943EA9E
:1052C00004134360C36923F00303C36126E0036A48
:1052D00023F480530362036A146843EA04330362CD
:1052E000036A23F400530362036AD48843EA043355
:1052F00003620B4B984202D00A4B984208D1436894
:1053000023F4804343604368548943EA8413436031
:10531000C36923F44073C36100E000BF00BF10BD48
:10532000000001400004014031B101290CD00229E4
:1053300013D0032922D118E0836923F0700383611D
:105340008369134383611AE0836923F4E043836133
:10535000836943EA0223836111E0C36923F0700388
:10536000C361C3691343C36109E0C36923F4E04324
:10537000C361C36943EA0223C36100E000BF00BF09
:10538000704731B1012906D0022906D0032908D17E
:1053900005E0426306E0826304E0C26302E0026467
:1053A00000E000BF00BF704731B101290CD00229D5
:1053B00013D0032922D118E0836923F00803836105
:1053C0008369134383611AE0836923F40063836173
:1053D000836943EA0223836111E0C36923F0080370
:1053E000C361C3691343C36109E0C36923F4006364
:1053F000C361C36943EA0223C36100E000BF00BF89
:10540000704710B5FFF746FDFFF7A6FDFFF7EEFD6D
:10541000FFF74CFE10BD000010B504465C49601A51
:105420008C426FD019DC5B49A4EB01008C424ED05A
:1054300009DCB4F1804F2ED057482044A0B3B0F51A
:10544000806F72D13AE0B0F5806F49D0B0F5006F4F
:105450004FD0B0F5406FF4D17BE0B0F5923F5BD018
:1054600009DCB0F5806F73D0B0F5644F0AD0B0F5A9
:10547000684F5AD147E0B0F5943F57D0B0F5963F0A
:1054800053D15CE04FF41060FEF740FF4FF4106022
:10549000FEF72AFF79E04FF40060FEF737FF4FF484
:1054A0000060FEF721FF70E0FFE740F60100FEF725
:1054B0002DFF40F60100FEF717FF66E040F6020000
:1054C000FEF724FF40F60200FEF70EFF5DE040F617
:1054D0000300FEF71BFF40F60300FEF705FF54E054
:1054E00040F60400FEF712FF40F60400FEF7FCFE53
:1054F0004BE040F60500FEF709FF40F60500FEF719
:10550000F3FE42E02EE040F60110FEF7FFFE40F60B
:105510000110FEF7E9FE38E04FF41160FEF7F6FEE9
:105520004FF41160FEF7E0FE2FE02DE040F6111081
:10553000FEF7ECFE40F61110FEF7D6FE25E040F631
:105540001210FEF7E3FE40F61210FEF7CDFE1CE04F
:1055500011E040F60600FEF7D9FE40F60600FEF721
:10556000C3FE12E040F60700FEF7D0FE40F607004B
:10557000FEF7BAFE09E040F60800FEF7C7FE40F667
:105580000800FEF7B1FE00E000BF00BF10BD000044
:10559000001C0040000C004000FCFFBF016821F02F
:1055A000010101607047C2680A43C2607047016828
:1055B00041F00101016070470A8882621D4A9042F1
:1055C0000ED0B0F1804F0BD01B4A904208D01B4A3E
:1055D000904205D01A4A904202D01A4A90420BD10A
:1055E000026822F07002026002684B881A4302606F
:1055F00002688B881A4302608A68C262124A90422B
:105600000AD0124A904207D0026822F44072026027
:1056100002688B891A430260064A904202D0094A06
:10562000904201D18A7B0263426942F001024261E9
:1056300070470000000001400004004000080040E6
:10564000000C004000040140001000400014004025
:10565000826822F07002826082680A43826070472A
:10566000C2680A43C260704702698A430261704798
:105670000246D06800EA01031069084010B10BB17E
:10568000012070470020FCE7426822F0700242606F
:1056900042680A434260704721B9826842F0800242
:1056A000826005E0012903D1826822F080028260D5
:1056B000704700001CB54FF44060FEF703FE40F653
:1056C0000140FEF7FFFD022000210B460246CDE916
:1056D000001080210B48FDF7C6FC802201210948FB
:1056E000FDF70CFC022000210B460246CDE900101C
:1056F00001210548FDF7B7FC012202210248FDF710
:10570000FDFB1CBD0000024000040240012904D141
:10571000426C42F40042426403E0426C22F40042D4
:105720004264704721B9026842F00802026005E055
:10573000012903D1026822F00802026070478268E2
:1057400022F00702826082680A438260704700008C
:105750002DE9F04704460D460027B846B946002615
:105760003549601A8C4235D00CDC34482044E8B10D
:10577000B0F5806F1FD0B0F5006F21D0B0F5406F4D
:1057800032D122E0B0F5806F29D0B0F5184F03D0A8
:10579000B0F51C4F28D104E00320FEF701FD0746B9
:1057A00023E00320FEF7FCFC07461EE00220FEF784
:1057B000F7FC074619E00220FEF7F2FC074614E06A
:1057C0000220FEF7EDFC07460FE00220FEF7E8FCA2
:1057D00007460AE00220FEF7E3FC074605E0022048
:1057E000FEF7DEFC074600E000BF00BFE06800F403
:1057F000004080B1780000EB5500B0FBF5F64FF6A5
:10580000F07006EA000806F00709A16848EA0900F6
:105810000143A1600EE007EB5500B0FBF5F64FF633
:10582000F07006EA000806F00F09A16848EA0900CE
:105830000143A160BDE8F0870078004000BCFFBFD5
:10584000C1F30802426070472DE9F04707460C4655
:1058500015469946FBF7F6FB804600262E4604B116
:105860002DB90CA0FBF76EFF0120BDE8F0870DE01D
:1058700021783846FFF7E4FF00BF0721384600F0E3
:105880008CF80028F9D0701E86B2641C002EEFDC64
:105890000020EAE7415420636D643A64617461203A
:1058A000747820205354415455535F4552524F52FF
:1058B00020720A0010B504463349601A8C424DD05C
:1058C0000CDC32482044E0B1B0F5806F22D0B0F556
:1058D000006F31D0B0F5406F52D136E0B0F5806F37
:1058E00045D0B0F5184F03D0B0F51C4F48D11AE0A1
:1058F00040F60410FEF70AFD40F60410FEF7F4FC33
:105900003FE040F61100FEF701FD40F61100FEF702
:10591000EBFC36E040F61200FEF7F8FC40F6120011
:10592000FEF7E2FC2DE040F60510FEF7EFFC40F636
:105930000510FEF7D9FC24E040F61300FEF7E6FC64
:1059400040F61300FEF7D0FC1BE040F61400FEF713
:10595000DDFC40F61400FEF7C7FC12E040F61E0026
:10596000FEF7D4FC40F61E00FEF7BEFC09E040F650
:105970001F00FEF7CBFC40F61F00FEF7B5FC00E071
:1059800000BF00BF10BD00000078004000BCFFBF9A
:10599000C16841F40051C160704710B5024602EB86
:1059A0009110006801F01F040123A340184008B1C2
:1059B000012010BD0020FCE70A460021416921F4C6
:1059C00000711143416170470A460021416921F489
:1059D000807111434161704700220A0B1203C1F329
:1059E0000B01B2F1805F03D1C3688B43C36015E044
:1059F000B2F1005F03D103698B4303610EE0B2F1A2
:105A0000804F03D143698B43436107E0B2F1004FFC
:105A100004D1D0F880308B43C0F880307047C26822
:105A200022F4C062C260C2680A43C26070470A467C
:105A30000021C16821F004011143C160704702696F
:105A400022F44052026102690A43026170470A4629
:105A50000021C16821F008011143C1607047C2688C
:105A600022F48052C260C2680A43C26070472DE9C6
:105A7000F04106460D4617460024002D01DD202D7D
:105A800002DD0020BDE8F0813046FDF7BFF8FDF7EC
:105A90003BF900240AE057F8241006EB8400FDF7D8
:105AA00045F9D320FDF7C0F8601CC4B2AC42F2DB6C
:105AB000FDF7C0F80120E5E7000021104220633027
:105AC0008440A550C660E770088129914AA16BB156
:105AD0008CC1ADD1CEE1EFF13112100273325222FE
